:020000040000fa
:080000000002040000000000f2
:020000040000fa
:100400000fa526000ebf27000e0188000000000087
:100410000c000700608f2a00010020001100070077
:10042000000020000000e000020032000000020096
:10043000000000000ca70200000000000040da00ed
:100440000000fe004440a900000920000000e00078
:100450000300320000002000a00188004440a800f2
:100460000000060091018800800078000000eb0089
:1004700015003700e280400032a0b4009101ba00bc
:10048000e280400032a0b4009102ba00e280400055
:1004900032a0b4000002eb00472bde00f507b200eb
:1004a000602ce10004003a000059eb008301e900f0
:1004b000fdff3e00040037006128e100010032002a
:1004c0000082eb00040007001101ba000200e00006
:1004d000e8ff3a00000006003159ba008301e90044
:1004e0000c0032002159ba008301e90008003200f3
:1004f0000400e00003003a00e280400032a0b400b3
:10050000f5ff370011d9ba008301e900faff3a007c
:100510008100e800e180400032a0b4000000060045
:10052000dca704000000000008a804000000000090
:100530000000fa008020a900ffff37000000fa0049
:100540008060a900ffff37000000fa008040a9008a
:10055000ffff37000000fa008080a900ffff37008e
:100560000000fa0080a0a900ffff37000040da0079
:100570000000fe00800078001104b1000300350087
:100580009101b10001003c000050a00000000600f5
:10059000800078001106b100030035009101b10020
:1005a00001003c000050a100000006006022b800dd
:1005b000060220000000d0008180d2000482d20018
:1005c0008582d2000000a0000202520083825a00fd
:1005d000030031000202420083824a000000a100b1
:1005e0000603e900f3ff3a0000000600efff0700f2
:1005f0000400be0000000600800178000200370001
:1006000081597800040178000202e900e00f5100ee
:10061000fbff3a00000006008001780031417800bd
:1006200082597800e04f5100fcff3a0000000600bc
:10063000800078000041eb00b14f1100fdff3a004f
:100640000080ea0000804000000006008001780081
:10065000060037000201e900114278008459780051
:10066000e04f5200060032008100e800e00f510028
:10067000f8ff3a00020037008059eb0001017800d2
:100680008200e900e00f5100fbff3a000000060085
:020000040000fa
:0200000401f009
:04000c00f8ff0000f9
:020000040000fa
:0200000401f009
:040010007dff000070
:020000040000fa
:0200000401f009
:040014007fff00006a
:020000040000fa
:10000800b6020000980200009e020000a402000050
:10001800aa020000b0020000b6020000b60200000a
:10002800b6020000b6020000b6020000b6020000e8
:10003800b4a80000b6020000b60200006aa90000d9
:10004800b6020000b6020000b6020000b4a6000026
:10005800eea60000b6020000b6020000b6020000dc
:10006800b6020000b6020000b6020000b6020000a8
:10007800b6020000b6020000b6020000b602000098
:10008800b6020000b6020000b6020000b602000088
:10009800b6020000b6020000b6020000b602000078
:1000a800b6020000b6020000b6020000b602000068
:1000b800b6020000b6020000b6020000b602000058
:1000c800b6020000b6020000b6020000b602000048
:1000d800b6020000b6020000b6020000b602000038
:1000e800b6020000b6020000b6020000b602000028
:1000f800b6020000b6020000b6020000b602000018
:10010800b6020000b6020000b6020000b602000007
:10011800b6020000b6020000b6020000b6020000f7
:10012800b6020000b6020000b6020000b6020000e7
:10013800b6020000b6020000b6020000b6020000d7
:10014800b6020000b6020000b6020000b6020000c7
:10015800b6020000b6020000b6020000b6020000b7
:10016800b6020000b6020000b6020000b6020000a7
:10017800b6020000b6020000b6020000b602000097
:10018800b6020000b6020000b6020000b602000087
:10019800b6020000b6020000b6020000b602000077
:1001a800b6020000b6020000b6020000b602000067
:1001b800b6020000b6020000b6020000b602000057
:1001c800b6020000b6020000b6020000b602000047
:1001d800b6020000b6020000b6020000b602000037
:1001e800b6020000b6020000b6020000b602000027
:0801f800b6020000b60200008f
:020000040000fa
:10020800b6020000980200009e020000a40200004e
:10021800aa020000b0020000b6020000b602000008
:10022800b6020000b6020000b6020000b6020000e6
:10023800b4a80000b6020000b60200006aa90000d7
:10024800b6020000b6020000b6020000b4a6000024
:10025800eea60000b6020000b6020000b6020000da
:10026800b6020000b6020000b6020000b6020000a6
:10027800b6020000b6020000b6020000b602000096
:10028800b6020000b6020000b6020000b602000086
:10029800b6020000b6020000b6020000b602000076
:1002a800b6020000b6020000b6020000b602000066
:1002b800b6020000b6020000b6020000b602000056
:1002c800b6020000b6020000b6020000b602000046
:1002d800b6020000b6020000b6020000b602000036
:1002e800b6020000b6020000b6020000b602000026
:1002f800b6020000b6020000b6020000b602000016
:10030800b6020000b6020000b6020000b602000005
:10031800b6020000b6020000b6020000b6020000f5
:10032800b6020000b6020000b6020000b6020000e5
:10033800b6020000b6020000b6020000b6020000d5
:10034800b6020000b6020000b6020000b6020000c5
:10035800b6020000b6020000b6020000b6020000b5
:10036800b6020000b6020000b6020000b6020000a5
:10037800b6020000b6020000b6020000b602000095
:10038800b6020000b6020000b6020000b602000085
:10039800b6020000b6020000b6020000b602000075
:1003a800b6020000b6020000b6020000b602000065
:1003b800b6020000b6020000b6020000b602000055
:1003c800b6020000b6020000b6020000b602000045
:1003d800b6020000b6020000b6020000b602000035
:1003e800b6020000b6020000b6020000b602000025
:0803f800b6020000b60200008d
:020000040000fa
:1006900000950000000000000000000001f90000cb
:1006a00000000000000000000887000004000000b7
:1006b0000000000009af0000000000000100000081
:1006c0000a1b000000000000010000000cc3000035
:1006d00001000000000000000daf0000020000005b
:1006e0000000000010ff00000000000000000000fb
:1006f00011ff0000000000000100000012ff0000d8
:10070000000000000100000018ff000000000000d1
:100710000100000019ff00000000000001000000bf
:1007200020ff0000000000000000000021ff00008a
:10073000000000000000000026df000001000000b3
:1007400000000000377300000000000000000000ff
:100750003a25000004000000000000003b250000d6
:10076000000000000000000029ff0000040000005d
:100770000000000017ff0000000000000000000063
:100780006e65000077660000696c0000652e000051
:1007900074780000740000002e0000002e0000009d
:1007a000000000002e2e0000000000007700000076
:020000040000fa
:1007b0000200fa000000eb00000f7800050037008f
:1007c000a0ec24009e00400010c0b30080487800d8
:1007d0001e0fe8001e007800e20f5000f8ff340002
:1007e00041a426000040eb0080487800a1a3260029
:1007f0000040eb00804878000080eb008080eb0038
:10080000b0518b00c1518b000080eb008080eb0069
:10081000f0518b0001528b00c748070040ba2500f9
:1008200084070700e04f50003b003a00305283003d
:1008300041ba250001087800305283008000eb00a7
:1008400051009800305283008000eb006100980056
:10085000325283006000b8007001980001099800ce
:10086000325283006000b8001009980021099800f6
:1008700031528300c0c5b300c0589800100020005a
:10088000000f780006003700305283001e00400041
:10089000fc00400000c2b300804878001e0fe80052
:1008a0001e007800ea0f5000f7ff3400305283003a
:1008b0008000eb007110980030528300010120008d
:1008c000111898003252830020d7820031d782005d
:1008d00020199800311998003252830020d78200e5
:1008e00031d7820040199800511998003052830086
:1008f0001100200041109800305283008000eb006e
:100900006110980081ae25000040eb00804878001f
:1009100010002000010037000000eb000080fa000a
:10092000000006006000fa00881f7800502f980031
:10093000612f980062df980073df98005e289000b6
:100940007010900040179800b0002000000f780051
:10095000a08d2500600f98006e289000d0109000a8
:10096000710f98000000eb00400798000000eb00ba
:10097000500798000000eb00700798000000eb00a3
:10098000000f98000000eb00300f98000040eb00d3
:10099000205f98000040eb00006798006e289000f0
:1009a0006010900050de8a0050de8200e00f5000a0
:1009b0001800320051de8200d000200000017800d3
:1009c000110009008280d8008000fd0000679800b7
:1009d00051de8200d00020000001780011000900e3
:1009e0008280d800404798000e609000e04f500091
:1009f00003003a0050de8200ec0f500003003e007e
:100a00004e4090000040e800404798004e40900063
:100a1000205f98005e289000b01890002018900089
:100a20005e29900040199800511998006e28900096
:100a300010199000020078000080ea008180ea002e
:100a4000101798004e109000e00f50000b003a0075
:100a5000800220000e00400012c0b3008000780029
:100a60005e2890004f170700e00f500011003a0079
:100a7000b0012000000f78000e0037004e109000eb
:100a80006f006000e00f50000a003200800220007a
:100a90000e00400012c0b300800078005e28900075
:100aa00040170700e00f500002003a00b00120009c
:100ab000000f78001e007800fb0f5000c6053200c2
:100ac0001e007800e00f5000c00532000000eb006f
:100ad000100f98000000eb00200f9800810220000a
:100ae0008e804000a00220000e004000010178002e
:100af000800078005e289000d21f070040679800b1
:100b00004e609000e24f5000b20532004e609000ff
:100b1000e04f50009d053a005e709000ef4f50008e
:100b20001b0032000000eb00000f98002e689000c0
:100b3000ee089000804878000040eb0040479800a5
:100b40000d0037004e4090000080fb000000e800e0
:100b5000ee089000808040004e4090000080fb0036
:100b60000000470030689000804878004e409000b8
:100b70000040e800404798004e409000e94f500088
:100b8000f0ff360010002000100f980079013700a8
:100b90002e6890008080fb00000420000080600030
:100ba000e00f5000d90032002e6890007f406000b6
:100bb000506798007ed89000e04f500011003a0036
:100bc00050de8200e00f500004003200de60900032
:100bd0002e58900080cf500006003a0050de820070
:100be000e00f500007003a005e609000e14f5000b7
:100bf000040032004e1090000000e80040179800fa
:100c0000710537002e6890008080fb00f00b2000fb
:100c1000008060006d00b900000078000000e9006d
:100c200040079800ce00900031079800ce20900039
:100c30004e00900000014000a08d25000000410002
:100c4000010878004e0090000000e900400798007d
:100c5000be2090004e00900000014000a08d2500b5
:100c600000004100010878004e0090000000e900fb
:100c7000400798009e2090004e0090000001400028
:100c8000a08d250000004100010878004e00900072
:100c90000000e900400798008e2090004e00900070
:100ca00000014000a08d25000000410001087800ef
:100cb0004e0090000000e90040079800fe189000e8
:100cc0004e00900000014000a08d25000000410072
:100cd000010878004e0090000000e90040079800ed
:100ce000ee1890004e00900000014000a08d2500fd
:100cf00000004100010878004e0090000000e9006b
:100d000040079800de1890004e009000000140005f
:100d1000a08d250000004100010878004e009000e1
:100d20000000e90040079800ce1890004e009000a7
:100d300000014000a08d250000004100010878005e
:100d40004e0090000000e900400798003e709000bf
:100d500020cf98004e70900030cf9800de20900099
:100d60004e00900000014000a08d250000004100d1
:100d7000010878004e0090000000e900400798004c
:100d80001e70900020cf98002e70900030cf9800f9
:100d9000de2090004e00900000014000a08d250054
:100da00000004100010878004e0090000000e900ba
:100db000400798007e68900020cf98000e70900049
:100dc00030cf9800de2090004e00900000014000df
:100dd000a08d250000004100010878004e00900021
:100de0000000e900400798005e68900020cf98005e
:100df0006e68900030cf9800de2090004e0090008a
:100e000000014000a08d250000004100010878008d
:100e10004e0090000000e900400798003e689000f6
:100e200020cf98004e68900030cf9800de209000d0
:100e30004e00900000014000a08d25000000410000
:100e4000010878004e0090000000e900400798007b
:100e50003e0090000000e8007007980010c0b3004a
:100e600040479800120037004e4090008080fb0001
:100e70004e0090000080400080004000a08d2500c2
:100e80000080400010007800e00f500005003a009c
:100e90004e4090008080fb004e009000008040009b
:100ea000700798004e4090000040e80040479800ce
:100eb0004e409000ed4f5000ebff36007ed8900082
:100ec000e04f50000b003a00fe00900050de820020
:100ed000808f50000700320050de8200e00f50008b
:100ee000040032004e1090000000e8004017980007
:100ef000b50437007e0090000000e900500798001c
:100f000010002000000f9800910037000e0890009c
:100f1000e10f50008a003a00ce2090004e00900071
:100f200000014000a08d250000004100010878006c
:100f30004e0090000000e90040079800be2090009d
:100f40004e00900000014000a08d250000004100ef
:100f5000010878004e0090000000e900400798006a
:100f60009e2090004e00900000014000a08d2500c2
:100f700000004100010878004e0090000000e900e8
:100f8000400798008e2090004e0090000001400025
:100f9000a08d250000004100010878004e0090005f
:100fa0000000e90040079800fe1890004e009000f5
:100fb00000014000a08d25000000410001087800dc
:100fc0004e0090000000e90040079800ee189000e5
:100fd0004e00900000014000a08d2500000041005f
:100fe000010878004e0090000000e90040079800da
:100ff000de1890004e00900000014000a08d2500fa
:1010000000004100010878004e0090000000e90057
:1010100040079800ce1890004e009000000140005c
:10102000a08d250000004100010878004e009000ce
:101030000000e900400798003e70900020cf980023
:101040004e70900030cf9800de2090004e0090004f
:1010500000014000a08d250000004100010878003b
:101060004e0090000000e900400798001e709000bc
:1010700020cf98002e70900030cf9800de20900096
:101080004e00900000014000a08d250000004100ae
:10109000010878004e0090000000e9004007980029
:1010a0007e68900020cf98000e70900030cf98009e
:1010b000de2090004e00900000014000a08d250031
:1010c00000004100010878004e0090000000e90097
:1010d000400798005e68900020cf98006e689000ee
:1010e00030cf9800de2090004e00900000014000bc
:1010f000a08d250000004100010878004e009000fe
:101100000000e900400798003e68900020cf98005a
:101110004e68900030cf9800de2090004e00900086
:1011200000014000a08d250000004100010878006a
:101130004e0090000000e9004007980004003700ce
:101140004e1090000000e800401798001e04370081
:101150004e009000e00f5000040034004e1090004c
:101160000000e80040179800170437001000200026
:10117000200f98000000eb00000f98000000eb002b
:10118000000f78007ed890000080fb00e00f500038
:1011900003003200e10f500060013200c00337004d
:1011a0000040eb00404798000c0037004e40900094
:1011b0008080fb004e4090000080fb006e09900094
:1011c000000041001040780081004700c0c898002e
:1011d0004e4090000040e800404798004e4090008c
:1011e000ea4f5000f1ff36006e08900068004000a2
:1011f0009040780000c2b30080cf50005800320009
:101200000040eb00404798000b0037004e40900034
:101210000080fb00ee0890000080400090407800c5
:1012200000c2b30080cf5000070032004e40900053
:101230000040e800404798004e409000e74f5000c3
:10124000f2ff360001003700000000004e40900021
:101250000080fb0080004700e0c2b300c0c89800d7
:101260004e4090000040e800404798004e409000fb
:101270008080fb006e0890006800400010407800fd
:1012800081004700c0c898004e4090000040e80030
:10129000404798006e089000690040009040780038
:1012a00000c2b30080cf50000b0032004e409000cf
:1012b0008080fb006e0890006900400010407800bc
:1012c00081004700c0c898004e4090000040e800f0
:1012d00040479800080037004e4090000080fb0017
:1012e000800047000040eb00c0c898004e409000ce
:1012f0000040e800404798006e0890006a004000f7
:101300009040780000c2b30080cf50000b00320044
:101310004e4090008080fb006e0890006a00400004
:101320001040780081004700c0c898004e409000ef
:101330000040e800404798001b0037004e409000f6
:101340000080fb00800047000040eb00c0c8980010
:101350004e4090000040e8004047980012003700df
:101360000040eb00404798000a0037004e409000d4
:101370000080fb0000004700c0c8900000c2b3001e
:1013800080cf5000070032004e4090000040e8003f
:10139000404798004e409000e74f5000f3ff360062
:1013a00001003700000000004e4090000080fb006c
:1013b000800047000040eb00c0c8980050de82006b
:1013c000e00f50007a0032002e089000e00f50002d
:1013d0003f0032000000eb00300798003600370075
:1013e0006e28900040109000e00f50002000320066
:1013f0003e00900000004000fe0890000080400089
:1014000010007800204798003e00900080004000c7
:10141000a08d250000804000100078003047980023
:101420003e00900080004000a08d2500008040001c
:1014300090007800f00f2000808f500009003e00df
:101440002e4090000080fb004afc0700000478005a
:101450003e4090000080fb0046fc0700800f5400d7
:1014600012003200b0002000000f78001700370093
:101470003e00900000004000fe0890000080400008
:10148000900078003e00900000014000a08d2500f3
:101490000000410010007800808f500003003200ef
:1014a000b0002000000f7800080037003e009000d8
:1014b0000000e80030079800be00900050de820077
:1014c000808f5000c6ff3900f5023700f402370064
:1014d0001e089000e00f5000320032006e2890008d
:1014e00040109000e00f50002e003200c004200099
:1014f0000e0040004efc07008000780050de8200a5
:10150000808f500003003200b0002000000f7800f0
:10151000220037000000eb00300798001b00370066
:101520003e00900000004000fe0890000080400057
:101530001000780020479800c10420008e804000f1
:101540003e00900000804000104078003047980036
:101550002e4090000080fb0006fc0700000478008d
:101560003e4090000080fb0002fc0700800f54000a
:1015700003003200b0002000000f780007003700a1
:101580003e0090000000e80030079800be00900088
:1015900050de8200808f5000e1ff39000000000023
:1015a000bf023700b0002000000f7800bc023700f7
:1015b0002e089000e00f500035003200c0042000db
:1015c0000e0040001afc0700fe009000810f500042
:1015d00003003200b0002000000f7800b002370096
:1015e0000000eb0030079800240037003e00900018
:1015f00080004000a08d2500008040001000780091
:1016000020479800c10420008e8040003e009000da
:101610000080400010407800304798003e00900065
:1016200080004000a08d25000080400090007800e0
:10163000f00f2000808f500009003e002e409000e7
:101640000080fb00cbfb0700000478003e409000c8
:101650000080fb00c7fb0700800f5400040032002d
:10166000b0002000000f7800000000008c0237005e
:101670003e0090000000e80030079800be00900097
:101680007e009000808f5000d8ff35008402370024
:101690000040eb00404798001c0037004e4090008f
:1016a0000080fb00ee0890000080400010417800b0
:1016b000224798004e4090000080fb00ee289000ea
:1016c0007c00400061407800304798002e40900038
:1016d0000080fb00a7fb0700000478003e4090005c
:1016e0000080fb00a3fb0700800f540004003200c1
:1016f000b0002000000f78000000000068023700f2
:101700004e4090000040e800404798004e40900056
:10171000ea4f5000e1ff36006102370050de8200e0
:10172000e00f50005c0132000000eb00300f980029
:101730002e089000e00f50001d0032005e00900067
:1017400060079800110037006e0090008000400094
:10175000a08d25000080400090007800e00220006d
:10176000808f500006003a0010002000300f9800d3
:101770006e0090000000e900600798000600370046
:101780006e0090000000e900600798006e00900075
:10179000e00f5000ecff3c003e089000e00f5000ce
:1017a0000d003a00de009000610798000a00370043
:1017b0006e089000680040009040780000c2b300be
:1017c00080cf50000200320010002000300f98003f
:1017d000700020006007980050de82000000e900e1
:1017e000400798000000eb00400f98001100370000
:1017f0004e00900000004000fe0890000080400075
:1018000090007800e0022000808f500006003a002f
:1018100010002000400f98004e0090000000e900ea
:1018200040079800060037004e0090000000e900d5
:10183000400798004e009000e00f5000ecff3c0085
:101840004e089000e00f500003003a0050de820086
:101850000000e900400798000000eb003007980006
:1018600001003700000000003e0090000000400032
:10187000fe0890000080400090007800a002200048
:10188000808f50005f003200be0090006e0090001c
:10189000808f500003003400b0002000000f78005b
:1018a0005b0037003e00900000004000fe08900002
:1018b0000080400090007800f0032000808f5000ee
:1018c000420032006e28900040109000e00f50005f
:1018d0002c0032003e00900000004000fe08900006
:1018e0000080400010007800204798002e089000eb
:1018f000e00f5000070032003e00900080004000e2
:10190000a08d25000080400010007800304798002e
:10191000050037003e009000ee0890000080400077
:1019200010417800324798002e089000e00f5000d8
:10193000080032003e00900080004000a08d25008d
:101940000080400090007800f00f2000808f500051
:1019500009003e002e4090000080fb0005fb0700c0
:10196000000478003e4090000080fb0001fb07006f
:10197000800f540015003200b0002000000f7800e6
:10198000230037003e00900000004000fe08900059
:1019900000804000900078003e0090000001400070
:1019a000a08d25000000410010007800808f5000bd
:1019b00003003a001e089000e00f500003003200c0
:1019c000b0002000000f7800110037003e009000aa
:1019d0000000e80030079800be0090004e00900024
:1019e000808f50009fff3400be0090006e0090007a
:1019f000808f500005003c00b0002000000f7800f0
:101a00000300370000000000010037000000000064
:101a10004e089000e00f500006003a003e0890008b
:101a2000e10f500097013a00b0002000000f78004d
:101a30009b0137003e089000e00f500003003a0081
:101a4000b0002000000f7800950137002e089000ac
:101a5000e00f5000040032006e0090000080e800ab
:101a6000600798000200370080002000600798009f
:101a70004e0090000080e800300798000100370019
:101a8000000000003e00900000004000fe089000b2
:101a90000080400090007800a0022000808f50005d
:101aa00001003a007b0037002e089000e00f500044
:101ab00004003200ee0090005e009000808f500025
:101ac00006003c001e089000e00f500006003200a7
:101ad0006e009000eb0f500003003a00b0002000b1
:101ae000000f78006b0037003e00900000004000bf
:101af000fe0890000080400090007800f003200075
:101b0000808f5000420032006e28900040109000fc
:101b1000e00f50002c0032003e009000000040001a
:101b2000fe089000008040001000780020479800d8
:101b30002e089000e00f5000070032006e00900069
:101b400080004000a08d250000804000100078003b
:101b500030479800050037006e009000ee089000b6
:101b60000080400090407800314798002e08900097
:101b7000e00f5000080032006e009000800040002e
:101b8000a08d25000080400090007800f00f20001c
:101b9000808f500009003e002e4090000080fb0026
:101ba00074fa0700000478003e4090000080fb00bb
:101bb00070fa0700800f540015003200b0002000ba
:101bc000000f7800330037003e0090000000400016
:101bd000fe08900000804000900078006e009000a9
:101be00000014000a08d2500000041001000780099
:101bf000808f500003003a001e089000e00f500054
:101c000003003200b0002000000f780021003700f0
:101c10006e0090000000e800600798003e00900011
:101c20000000e80030079800be00900050de8200ff
:101c3000808f500092ff3a002e089000e00f500075
:101c400004003200ee0090005e009000808f500093
:101c50000d0034001e089000e00f50000c00320010
:101c60006e009000ea0f500009003c006e009000ea
:101c7000ee089000008040009040780000c2b30061
:101c800080cf500002003200b0002000000f78002a
:101c900000000000020137002e089000e00f500005
:101ca0001f0032005e019000320798000000eb0038
:101cb000300f9800110037003e0090008000400077
:101cc000a08d25000080400090007800e0022000f8
:101cd000808f500006003a0010002000300f98005e
:101ce0003e0090000000e900300798000600370031
:101cf0003e0090000000e900300798003e00900090
:101d0000e00f5000ecff3c003e089000e00f500058
:101d100005003a005e00900030079800020037008e
:101d200070002000300798006e289000c058900086
:101d3000a0c2b30080cf5000590032000040eb0039
:101d40004047980001003700000000002e08900076
:101d5000e00f5000110032004e4090000080fb0068
:101d600080004000a08d2500008040009000780099
:101d7000f00f2000808f500005003e004e40900084
:101d80008080fb003e009000808f500003003400f4
:101d9000b0002000000f7800410037002e089000ae
:101da000e00f5000080032004e4090000080fb0021
:101db00080004000a08d25000080400010007800c9
:101dc00020479800060037004e4090000080fb003e
:101dd000ee08900000804000904078002147980075
:101de0004e4090000080fb00ee2890007c004000f8
:101df0006140780030479800be409000a0c2b30018
:101e000080cf500021003200be409000f0c3b300ec
:101e100080cf50000c0032002e4090000080fb006c
:101e2000d4f90700000478003e4090000080fb00d9
:101e3000d0f90700800f540003003200b0002000ea
:101e4000000f7800160037004e4090000040e80078
:101e5000404798004e409000e84f5000baff3a00cb
:101e60002e089000e00f50000a0032004e40900013
:101e70008080fb003e009000808f500007003c00f7
:101e8000b0002000000f78000500370000000000bf
:101e900003003700000000000100370000000000d0
:101ea0006e289000c0609000a0c2b30080cf5000a8
:101eb000760032001e007800e00f500075003a00f6
:101ec0002e089000e00f5000150032006e289000a0
:101ed000c060900000c2b30080cf500006003a00fe
:101ee0003e089000e10f50006c003a00b000200066
:101ef000000f78006a0037003e089000e00f5000a5
:101f000003003a00b0002000000f780064003700a2
:101f10003e0090000080e800300798000200370083
:101f2000800020003007980080c0b3004047980030
:101f300001003700000000002e089000e00f500064
:101f40000f0032003e00900080004000a08d250070
:101f50000080400090007800f00f2000808f50003b
:101f600004003e00be0090005e009000808f500094
:101f700003003400b0002000000f7800400037005c
:101f80004e4090000080fb00ee2890007c00400056
:101f900061407800304798002e089000e00f500014
:101fa0000a0032003e00900080004000a08d250015
:101fb0000080400010007800204798003e0090000c
:101fc0000000e80030079800080037003e0090004d
:101fd000ee089000008040001041780022479800f1
:101fe0003e0090000000e80030079800be409000de
:101ff000a0c2b30080cf500001003a00200037009b
:10200000be409000f0c3b30080cf50000c003200ff
:102010002e4090000080fb0056f907000004780075
:102020003e4090000080fb0052f90700800f5400f2
:1020300003003200b0002000000f780010003700cd
:102040004e4090000040e800404798004e4090000d
:10205000eb4f5000b7ff3a002e089000e00f500001
:1020600006003200be0090005e009000808f50009d
:1020700002003c00b0002000000f780000000000cb
:1020800007003700000000000500370000000000d6
:1020900003003700000000000100370000000000ce
:1020a0001e007800e00f500040003a002e0890001b
:1020b000e00f5000030032004e1090000000e800d6
:1020c00040179800800220000e0040008000780039
:1020d0005e289000ad190700406798002e08900018
:1020e000e00f5000030032004e1090000000e900a5
:1020f000401798005e2890009018900031179800c3
:10210000be109000f003200000806000301798009f
:102110007ed890000080fb00e00f500003003200ea
:10212000e10f500007003200230037003e109000fe
:10213000e80f50001f003a00b0002000000f7800a8
:102140001d003700be1090001e109000008060003f
:10215000e00f500002003200b0002000000f7800b5
:102160002e089000e00f500004003200fe009000a6
:102170005e289000611098000f0037005e289000e4
:102180008000eb00611098000b0037000000eb00ae
:10219000000f98006ed89000e04f500006003a0003
:1021a0000000eb00000f7800030037000000000083
:1021b00001003700000000004e1090000000e80011
:1021c000401798003efa37003dfa37000000000043
:1021d00001003700000000001e0078004f04780066
:1021e0000080fa00000006001000fa005007980076
:1021f00061079800624f98000000eb00000f780024
:102200005e00900090007800110798001e0090007a
:1022100030609000e04f500003003a007000200052
:10222000000f7800900037005e009000b01890001a
:10223000201890005e0190004019980051199800f4
:102240006e00900010007800e00f500009003a0086
:1022500012c0b300ee0090005e0090005111070024
:10226000e00f500010003a00b0012000000f78008d
:102270000d0037006e009000100078006f006000c5
:10228000e00f50000800320012c0b300ee009000d2
:102290005e00900043110700e00f500002003a007a
:1022a000b0012000000f7800ee0090005e0090006a
:1022b00036190700404798004e409000e04f50000c
:1022c00003003200b0002000000f780066003700e5
:1022d0005e0190006000b80070019800010998004c
:1022e0005e009000a0009000100090005e01900041
:1022f00030019800410198005e0090008000eb00e2
:10230000510098005e0090008000eb006100980092
:102310004e409000e14f500003003a00b000200012
:10232000000f7800300037005e009000c000900081
:10233000300090000001be001e0090008c1f0700be
:10234000300798004107980020a42600104078002c
:10235000e04f500005003200b3210700e04f50006d
:102360000200320090002000400037005e01900023
:10237000e2518b00f2518300035283003e00900033
:10238000ce009000800f5100818f5900160032005e
:1023900041a426000040eb00804878001e00900019
:1023a000104178008280fb00104090000080fb000c
:1023b0004800dd0001007000000178003e00900040
:1023c000ce0090007b420700e04f500002003a0030
:1023d00080002000000f78003e009000ce009000aa
:1023e000f0518b0001528b005e009000300990008c
:1023f000b1ff2f008100610031089800ee48900085
:1024000070c7b30080cf500004003200ee48900047
:1024100010c6b30080cf50000a003a005e00900062
:10242000b00890000100a000310898005e00900004
:1024300030099000d1ff2f00810061003108980021
:10244000090037005e00900030099000e1ff2f0086
:1024500081006100310898005e009000b008900093
:102460000110a000310898001e0078000080fa00da
:10247000000006001a00fa00200f9800320f9800a2
:10248000430f98000040eb00004f98002e0890008a
:1024900090007800510798005e0090002060900046
:1024a0000080fb00e10f50000a003200e30f5000f3
:1024b00010003a0080ff2f00f1ff20002007980055
:1024c00031079800f0ff2f00f1ff2000008fbe00c1
:1024d0001000370080ff2000010020002007980036
:1024e00031079800f0ff2f0001002000008fbe0090
:1024f0000800370080ff2f0001002000200798000f
:1025000031079800f0ff2f0001002000008fbe006f
:10251000000000002e08900030019000c0019000e3
:1025200062079800730798006e019000fe0190000a
:102530005e009000a4290700000f9800110f98007a
:102540000e0890009e089000be0f5000ae8f5800fd
:1025500003003a0080c0b300004f98001f0037000e
:102560005e019000c25190000382fb00d2519000a6
:102570008381fb00c819dd008481710003007800ad
:10258000e25190008381fb00725190000281fb00b8
:102590004811dd0003017100820078000e099000ef
:1025a0009e099000820f5000838f580002003e0069
:1025b000a0c0b300004f98000e0990009e09900043
:1025c0002e009000be009000800f5100818f5900b6
:1025d00002003900c0c3b300004f98002e089000dd
:1025e0000e0990009e099000320098004300980068
:1025f0003e089000ce08900061005000e080580036
:10260000300f9800410f98003e089000ce089000cf
:10261000e00f5000e08f5800030032000e48900099
:10262000e04f5000bbff32000e4890000080fa00df
:10263000000006000600fa00200798000040eb00aa
:10264000004f7800ae0090000040eb00b0609800b2
:102650002e009000c25f2600f10f20008101610072
:1026600090407800e0c0600083c0700001487800ae
:102670004811de0090409000e0c0600082c0700011
:1026800011409800be440700100798001e009000fb
:1026900010407800e04f50000600320060c0b300e8
:1026a000004f780081ae250060c0b30080487800fc
:1026b0003b0037001e0090009000780000102000c2
:1026c00000806000e00f5000260032001e009000e5
:1026d000100090006101b8002e009000f10f200062
:1026e0000102610080589000e0c0600084c070006a
:1026f000015898004812de0090589000e0c0600039
:1027000084c0700011589800f10f20000182610010
:10271000a0589000e0c0600084c07000215898006c
:102720004819de00b0589000e0c0600082c0700020
:10273000315898001e00900090009000002020006a
:10274000808f50000700360010c2b300004f7800a1
:1027500081ae250010c2b300804878001e4078008a
:10276000100037002e00900010000700004f780086
:102770001e407800e04f500009003a002e00900003
:1027800045010700004f78001e407800e04f5000e0
:1027900003003a00ae00900010c0b300b060980093
:1027a0001e4078000080fa00000006000c00fa00cd
:1027b000500798000040eb00004f78005e0090004a
:1027c000104178008280fb00104090000080fb00e8
:1027d0004800dd0001007000000178006000b800d2
:1027e00074410700e14f50000600320080c0b30082
:1027f000004f780081ae250080c0b300804878008b
:10280000220137005e009000104178008280fb00ba
:10281000104090000080fb004800dd0001007000c7
:10282000200798002e009000e0f8930050c5b300f8
:1028300080cf5000a1003a002e009000f0f89300e5
:10284000a0cab30080cf50009c003a005e00900008
:10285000104178008280fb00104090000080fb0057
:102860004800dd000100700061032000fa1d070030
:1028700061c4b300814f500042003a005e009000f6
:10288000104178008280fb00104090000080fb0027
:102890004800dd000100700071032000ee1d0700fc
:1028a00011c4b300814f500036003a005e00900022
:1028b000104178008280fb00104090000080fb00f7
:1028c0004800dd000100700081032000e21d0700c8
:1028d00041c5b300814f50002a003a005e009000cd
:1028e000104178008280fb00104090000080fb00c7
:1028f0004800dd000100700091032000d61d070094
:1029000011c3b300814f50001e003a005e009000da
:10291000104178008280fb00104090000080fb0096
:102920004800dd000100700061022000ca1d0700a0
:1029300091c2b300814f500012003a005e00900037
:10294000a0409000e0c0600021409800b04090009e
:10295000e0c0600031409800c0409000e0c06000de
:1029600041409800d0409000e0c060005140980085
:10297000de00900020c0b300a06098000040eb0093
:10298000c30037005e009000104178008280fb0099
:10299000104090000080fb004800dd000100700046
:1029a00021052000ac1d070061c4b300814f500019
:1029b00042003a005e009000104178008280fb00e7
:1029c000104090000080fb004800dd000100700016
:1029d00031052000a01d070011c4b300814f500035
:1029e00036003a005e009000104178008280fb00c3
:1029f000104090000080fb004800dd0001007000e6
:102a000041052000941d070041c5b300814f5000cf
:102a10002a003a005e009000104178008280fb009e
:102a2000104090000080fb004800dd0001007000b5
:102a300051052000881d070031c3b300814f5000ad
:102a40001e003a005e009000104178008280fb007a
:102a5000104090000080fb004800dd000100700085
:102a6000210420007c1d070091c2b300814f50005b
:102a700012003a005e009000a0409000e0c06000ac
:102a800021409800b0409000e0c0600031409800c4
:102a9000c0409000e0c0600041409800d0409000ed
:102aa000e0c0600051409800de00900030c0b300ec
:102ab000a06098000040eb00750037005e009000b9
:102ac000104178008280fb00104090000080fb00e5
:102ad0004800dd0001007000300798003e009000c3
:102ae000e0f8930050c5b30080cf500005003a00d5
:102af0003e009000f0f89300a0cab30080cf5000d1
:102b00000600320081ae250040c0b3008048780046
:102b100040c0b300004f78005c0037003e009000da
:102b2000e01bb000100798000040eb001047980031
:102b30004e0037001e009000804890000182fb008c
:102b4000904890008180fb00c808dd008480700000
:102b500001017800a04890008180fb00304890007f
:102b60000080fb004800dd0001007000800178005b
:102b70005e009000f10f200001026100a040900073
:102b8000e0c0600084c07000214098004812de0060
:102b9000b0409000e0c0600084c0700031409800f8
:102ba000f10f200001826100c0409000e0c0600091
:102bb00084c07000414098004819de00d040900069
:102bc000e0c0600082c07000514098001e0090007c
:102bd000c0409000014f98000e4890000080fb001c
:102be000ee0f50001b003e00110020000008dd0029
:102bf0000105240081006000e08f50000b003a00c6
:102c00000180210081006000e08f50000c003a003c
:102c100062006000e00f50000e003200de00900005
:102c200010c0b300a06098000a003700de009000da
:102c300020c0b300a06098001e4078001400370048
:102c4000de00900030c0b300a06098001e40780005
:102c50000f0037001e009000700040001007980021
:102c60001e4090000040e800104798001e40900071
:102c7000e34f5000afff360081ae250050c0b300d7
:102c80008048780050c0b300004f78001e407800a4
:102c90000080fa00000006001a00fa00889fbe00bb
:102ca000400f98000040eb00404798000000eb0008
:102cb000300798000000eb00400798004e08900095
:102cc000104178008280fb00104090000080fb00e3
:102cd0004800dd0001007000000278004e099000fd
:102ce000a24190008382fb00b24190008381fb00ef
:102cf000c819dd008581710003007800c241900091
:102d00008381fb00524190000281fb004811dd00ed
:102d1000030171008200780004017800254007005b
:102d2000e14f50000300320080c0b30040479800dc
:102d3000fb0237004e089000904178008380fb0032
:102d4000104090000080fb004800dd000100700092
:102d5000500798005e009000e0f8930050c5b30063
:102d600080cf500005003a005e009000f0f893001c
:102d7000a0cab30080cf50000300320030c0b300bf
:102d800040479800260237004e0890001041780016
:102d90008280fb00104090000080fb004800dd00b6
:102da00001007000e1002000b31c070060079800dc
:102db0004e089000904178008380fb001040900006
:102dc0000080fb004800dd0001007000d100200001
:102dd000a11c0700ce089000906098004e0990005a
:102de000a24190000382fb00b24190008381fb006e
:102df000c819dd008481710003007800c241900091
:102e00008381fb00524190000281fb004811dd00ec
:102e100003017100820078006e0190000300200021
:102e200000014100818149004e089000f10f20000f
:102e300001026100e0409000e0c0600084c07000ca
:102e4000614098004812de00f0409000e0c0600051
:102e500084c0700071409800f10f20000182610071
:102e600080489000e0c0600084c070000148980075
:102e70004819de0090489000e0c0600082c07000f9
:102e8000114898004e089000104178008280fb00a5
:102e9000104090000080fb004800dd000100700041
:102ea000010120006c1c0700ce0890008060980093
:102eb0004e089000904178008380fb001040900005
:102ec0000080fb004800dd0001007000610120006f
:102ed000691c07006101b8004e089000f10f200046
:102ee00001026100c0589000e0c0600084c0700022
:102ef000415898004812de00d0589000e0c06000b1
:102f000084c0700051589800f10f200001826100c8
:102f1000e0589000e0c0600084c0700061589800e4
:102f20004819de00f0589000e0c0600082c07000d8
:102f3000715898004e099000c25990000382fb001e
:102f4000d25990008381fb00c819dd008481710093
:102f500003007800e25990008381fb0072599000d1
:102f60000281fb004811dd0003017100820078003e
:102f7000e00f5000e08f580021003a004e0890000a
:102f8000104178008280fb00104090000080fb0020
:102f90004800dd000100700041022000511c0700c4
:102fa0000001be004e089000f10f200001026100f8
:102fb000c0589000e0c0600084c070004158980084
:102fc0004812de00d0589000e0c0600084c070005d
:102fd00051589800f10f200001826100e0589000e4
:102fe000e0c0600084c07000615898004819de009d
:102ff000f0589000e0c0600082c0700071589800e6
:103000004e089000e04090000181fb00f0409000ed
:103010008180fb00c808dd0082807000010278001a
:10302000804890008180fb00104890000080fb00e9
:103030004800dd0001007000800278004e0890001a
:10304000006090000081fb00030020004e0b900008
:10305000c65b90000784fb00d65b90008783fb0073
:10306000c83bdd008883730007007800e65b9000b2
:103070008783fb00765b90000683fb004833dd000e
:103080000703730086007800009bb90006037800f0
:10309000028cb90088037800070343000010b800d1
:1030a0000103430086007800040140008581480048
:1030b0004e089000f10f200001026100a04890002e
:1030c000e0c0600084c07000214898004812de0013
:1030d000b0489000e0c0600084c0700031489800a3
:1030e000f10f200001826100c0489000e0c0600044
:1030f00084c07000414898004819de00d048900014
:10310000e0c0600082c07000514898004e089000f6
:10311000904178008380fb00104090000080fb000d
:103120004800dd000100700011012000d21b0700e3
:10313000000178004e089000f10f2000810161002d
:10314000a0509000e0c0600083c070002150980043
:103150004811de00b0509000e0c0600082c07000f6
:10316000315098004e089000104178008280fb009a
:10317000104090000080fb004800dd00010070005e
:1031800031012000bc1b070001002000008fbe00a1
:103190001e00be00e00f5000e08f58000a003a0009
:1031a0004e089000904178008380fb001040900012
:1031b0000080fb004800dd000100700001022000db
:1031c000c81b0700008fbe004e0890001041780019
:1031d0008280fb00104090000080fb004800dd0072
:1031e00001007000b1002000a31b070070079800c9
:1031f0007e009000e00f5000050032007e0090003d
:103200006100600000407800e04f50000300320091
:1032100010c2b3004047980001013700ce0890006b
:10322000215090000081fb00315090000080fb0095
:103230004800dd0002007000c500dd007e00900047
:10324000008040008000e9007e009000800178004e
:10325000110009008380d80001002000000f9800b1
:10326000110f98006e0090006103b8004e089000a6
:10327000006090000081fb00030020004e0a9000d7
:10328000c45a90000584fb00d45a90008582fb004c
:10329000c82add008882720005007800e45a900098
:1032a0008582fb00745a90000482fb004822dd00f6
:1032b0000502720084007800009ab90004027800c8
:1032c000028cb90088027800050242000010b800a4
:1032d0000102420084007800060140008781480016
:1032e0000e0890009e089000020040008380480075
:1032f0003e011000ae8118000200be00200f9800b1
:10330000310f98004e089000106090000080fb0084
:10331000010020000001be002e089000be089000b1
:10332000a2f407000001be004e089000f10f20003b
:1033300001026100c0509000e0c0600084c07000d5
:10334000415098004812de00d0509000e0c060006c
:1033500084c0700051509800f10f2000018261007c
:10336000e0509000e0c0600084c0700061509800a0
:103370004819de00f0509000e0c0600082c070008c
:10338000715098004e099000c25190000382fb00da
:10339000d25190008381fb00c819dd008481710047
:1033a00003007800e25190008381fb00725190008d
:1033b0000281fb004811dd000301710082007800ea
:1033c00042ff200003002000820f5000838f58002e
:1033d00004003e00ce08900010c0b300a06098002a
:1033e0001b0037004e099000c25190000382fb0081
:1033f000d25190008381fb00c819dd0084817100e7
:1034000003007800e25190008381fb00725190002c
:103410000281fb004811dd00030171008200780089
:1034200042ff2f0003002000820f5000838f5800be
:1034300004003e00ce08900020c0b300a0609800b9
:1034400003003700ce08900030c0b300a0609800a1
:103450004e08900020609000e34f500036003a0084
:103460004e089000904178008380fb00104090004f
:103470000080fb004800dd0001007000c102200058
:10348000181b070020d78a0031d78a004e09900008
:10349000a24990000382fb00b24990008381fb00a7
:1034a000c819dd008481710003007800c2499000d2
:1034b0008381fb00524990000281fb004811dd002e
:1034c00003017100820078000e0990009e099000af
:1034d00000014100818149004e089000f10f200059
:1034e00001026100e0489000e0c0600084c070000c
:1034f000614898004812de00f0489000e0c060008b
:1035000084c0700071489800f10f200001826100b2
:1035100080509000e0c0600084c0700001509800ae
:103520004819de0090509000e0c0600082c070003a
:1035300011509800340037006000b80020d78a008e
:1035400031d78a004e099000a24990000382fb0007
:10355000b24990008381fb00c819dd0084817100ad
:1035600003007800c24990008381fb00524990001b
:103570000281fb004811dd00030171008200780028
:10358000ce099000235190000282fb00335190003d
:103590000281fb004811dd00040171004411de00ce
:1035a0000300200000014100818149004e08900085
:1035b000f10f200001026100e0489000e0c06000cf
:1035c00084c07000614898004812de00f048900006
:1035d000e0c0600084c0700071489800f10f2000c6
:1035e0000182610080509000e0c0600084c07000e3
:1035f000015098004819de0090509000e0c0600033
:1036000082c0700011509800fe0090000020200041
:10361000808f50000200360010c2b300404798006f
:103620004e08900020609000e34f50000d003200e3
:103630004e409000e04f5000b20032005e0090001b
:10364000a0c0900090c2b30080cf500005003200af
:103650005e009000a0c0900080c2b30080cf5000f8
:10366000aa003a00de009000315090000081fb007b
:10367000415090000080fb004800dd000200700017
:10368000e00f50003a003a005e0090004070900059
:10369000e04f500036003a005e00900050709000fd
:1036a000e04f500032003a005e00900060709000e1
:1036b000e04f50002e003a005e00900070709000c5
:1036c000e04f50002a003a005e0090000078900021
:1036d000e04f500026003a005e0090001078900005
:1036e000e04f500022003a005e00900020789000e9
:1036f000e04f50001e003a005e00900030789000cd
:10370000e04f50001a003a005e00900040789000b0
:10371000e04f500016003a005e0090005078900094
:10372000e04f500012003a005e0090006078900078
:10373000e04f50000e003a005e009000707890005c
:10374000e04f50000a003a005e009000a0c09000d8
:1037500090c2b30080cf5000070032005e0090009e
:10376000a0c0900080c2b30080cf500002003200a1
:1037700030c0b300404798004e409000e04f5000ea
:10378000320032003e009000e00f50002f003a005f
:1037900010002000300798004e089000104178007b
:1037a0008280fb00104090000080fb004800dd009c
:1037b00001007000000278004e099000a2419000c4
:1037c0008382fb00b24190008381fb00c819dd00b9
:1037d0008581710003007800c24190008381fb0065
:1037e000524190000281fb004811dd00030171008d
:1037f00082007800de019000237190008282fb003d
:10380000337190000281fb004811dd000501710059
:10381000030020000000410081804900040178007d
:10382000643d0700e14f50000500320081ae2500e5
:1038300080c0b3008048780080c0b3003f003700ec
:103840000040eb00404798002d0037004e409000ac
:10385000e04f50002f0032004e009000e00f50006b
:103860002e003a0010002000400798004e089000fb
:10387000904178008380fb00104090000080fb00a6
:103880004800dd0001007000000278004e09900041
:10389000a24190008382fb00b24190008381fb0033
:1038a000c819dd008581710003007800c2419000d5
:1038b0008381fb00524190000281fb004811dd0032
:1038c000030171008200780066004000e08048003b
:1038d00004017800373d0700e14f50000500320039
:1038e00081ae250080c0b3008048780080c0b3005e
:1038f000120037000040eb00404798000000000035
:1039000014fd370000000000050037000000000033
:103910000300370000000000010037000000000035
:103920004e409000e04f50000300320080ae250072
:10393000ce409000014878004e4090004f04be00f9
:103940000080fa00000006000600fa002007980038
:103950006000b800008fbe002e009000200890008c
:1039600001002000008fbe001e00be00c000dd0070
:1039700000002000008fbe002e0090005008900034
:10398000010020001e1f70001e9770001e00be0068
:103990000080fa00000006001200fa0050079800ac
:1039a0006107980072079800030f98006000b80044
:1039b000008fbe005e009000ee009000e00f50000f
:1039c000e08f5800070032007e0190008e099000c1
:1039d0001000200001002000800f5100818f59004d
:1039e00002003e000080eb001e0137007e009000c8
:1039f0008e08900061015000e08158005e00900048
:103a0000ee009000800f5100818f590002003100bc
:103a10000080eb001301370020a42600104078003e
:103a2000e04f500005003200ff1b0700e04f500040
:103a3000020032000080eb000a0137000220200063
:103a40008000eb00c05f2600ebf20700c05f26009d
:103a5000200798005e009000ee009000300798006c
:103a6000410798003e009000ce00900012ec230029
:103a700003002000cdf207000001be004e18dd005b
:103a8000c210de00810070004e10dd00008fbe000d
:103a90003e009000ce00900012ec230003002000b6
:103aa000d2f2070030079800410798003e009000ce
:103ab000ce009000f203200003002000bbf20700bc
:103ac0000001be004618dd00ca10de008100700053
:103ad0004610dd001e1f70001e9770003e00900013
:103ae000ce009000f203200003002000bff2070088
:103af00030079800410798003e009000ce009000eb
:103b000061004000e08048001e1f70001e9770009a
:103b10001e00be004008de000100200000407800ca
:103b2000b17b2600804878001e00be004809dd00f9
:103b30004800de0000007100c808de000040780088
:103b4000c17b2600804878001e0078000040780085
:103b5000d17b2600804878007e0190008e0990007d
:103b60005e009000ee00900000015100818159003c
:103b70002e009000f10f200001026100a0c8930008
:103b8000e0c0600084c0700021c89b004812de00c5
:103b9000b0c89300e0c0600084c0700031c89b00d2
:103ba000f10f200001826100c0c89300e0c06000f6
:103bb00084c0700041c89b004819de00d0c8930043
:103bc000e0c0600082c0700051c89b002e019000d0
:103bd000a2c993000382fb00b2c993008381fb005a
:103be000c819dd008481710003007800c2c9930008
:103bf0008381fb0052c993000281fb004811dd0064
:103c0000030171008200780082032100030020007c
:103c1000820f5000838f580004003e00ae009000d9
:103c200010c0b300a0c09b001a0037002e01900006
:103c3000a2c993000382fb00b2c993008381fb00f9
:103c4000c819dd008481710003007800c2c99300a7
:103c50008381fb0052c993000281fb004811dd0003
:103c60000301710082007800f2d52f00f3032000d9
:103c7000820f5000838f580004003e00ae00900079
:103c800060c0b300a0c09b00020037000080eb00c2
:103c9000740037002e0090005e019000f10f2000ac
:103ca00001016100e0c09300e0c0600082c07000cc
:103cb00061c09b00de0090004809de00f0c0930068
:103cc000e0c0600082c0700071c09b006e01900077
:103cd000f10f20000101610080c89300e0c0600086
:103ce00082c0700001c89b00ee0090004809de0011
:103cf00090c89300e0c0600082c0700011c89b00b3
:103d00005e019000ee0190007e0090008e08900011
:103d1000020040008380480061005000e0805800ad
:103d200030079800410798003e009000ce009000b8
:103d300012ec2300030020001cf207000001be006b
:103d40004e18dd00c210de00810070004e10dd0054
:103d5000008fbe003e009000ce00900012ec2300c9
:103d60000300200021f20700300798004107980067
:103d70003e009000ce009000f203200003002000df
:103d80000af207000001be004618dd00ca10de007e
:103d9000810070004610dd001e1f70001e9770002d
:103da0003e009000ce009000f203200003002000af
:103db0000ef2070030079800410798003e0090007f
:103dc000ce00900061004000e08048001e1f70009f
:103dd0001e9770001e00be004008de00010020009b
:103de00000407800f17b2600804878001e00be006d
:103df0004809dd004800de0000007100c808de0050
:103e000000407800017c2600804878001e00780081
:103e100000407800117c260080487800ae009000b9
:103e20000040eb00e0789b00ae00900050c5b3006e
:103e3000e0f89b00ae009000a0cab300f0f89b0031
:103e400013c0b300c25f26006000b800163e070032
:103e5000e14f5000020032000080eb00010037000b
:103e60000000eb000080fa00000006004e00fa009f
:103e7000889fbe0060c7980042279800532798008b
:103e800061279800200220000e004000000f9800db
:103e900081ae25000040eb008048780041a4260058
:103ea0000040eb0080487800a1a326000040eb0012
:103eb000804878000080eb008080eb00b0518b00e0
:103ec000c1518b000080eb008080eb00f0518b0033
:103ed00001528b000e089000c25f2600f10f2000f7
:103ee0008101610090407800e0c0600083c07000f4
:103ef000014878004811de0090409000e0c060006a
:103f000082c07000114098000b3b07009c3e0700e8
:103f1000100f98001e08900010407800e04f5000ed
:103f20000500320081ae250060c0b30080487800f3
:103f30000080eb002e093700c25f26006000b80049
:103f40009c3b0700e04f500005003a0081ae250081
:103f5000b0c1b300804878000080eb00240937002e
:103f60000e089000104178008280fb001040900005
:103f70000080fb004800dd0001007000200f980069
:103f80002e089000e0f8930050c5b30080cf500099
:103f900097003a002e089000f0f89300a0cab300f2
:103fa00080cf500092003a000e0890001041780037
:103fb0008280fb00104090000080fb004800dd0084
:103fc00001007000610320002318070061c4b300e2
:103fd000814f500053003a000e08900010417800c5
:103fe0008280fb00104090000080fb004800dd0054
:103ff00001007000710320001718070011c4b300fe
:10400000814f500047003a000e08900010417800a0
:104010008280fb00104090000080fb004800dd0023
:1040200001007000810320000b18070041c5b30098
:10403000814f50003b003a000e089000104178007c
:104040008280fb00104090000080fb004800dd00f3
:104050000100700091032000ff17070011c3b30097
:10406000814f50002f003a000e0890001041780058
:104070008280fb00104090000080fb004800dd00c3
:104080000100700061022000f317070091c2b30025
:10409000814f500023003a000000eb00000f780031
:1040a0006ec090000000fb00e00f500007003200df
:1040b000e10f500044003a0081ae2500f0c1b3008a
:1040c000804878000080eb00c90837000e08900097
:1040d000a0409000e0c0600021409800b0409000f7
:1040e000e0c0600031409800c0409000e0c0600037
:1040f00041409800d0409000e0c0600051409800de
:104100000e089000e4fa0700e04f50003000320043
:1041100081ae2500b0c1b300804878000080eb007c
:10412000b3083700c05f2600000f78001e0078003b
:10413000e0c093000182fb00f0c093008180fb008f
:10414000c808dd00848070000101780080c89300f9
:104150008180fb0010c893000080fb004800dd0058
:1041600001007000800178000e089000f10f20001f
:1041700001026100a0409000e0c0600084c07000b7
:10418000214098004812de00b0409000e0c060007e
:1041900084c0700031409800f10f2000018261005e
:1041a000c0409000e0c0600084c0700041409800b2
:1041b0004819de00d0409000e0c0600082c070006e
:1041c0005140980003003700000000000100370054
:1041d000000000006ec090000000fb00e00f5000e7
:1041e00061053200e10f500006003200670537001c
:1041f00081ae250040c0b300804878000080eb000d
:104200007b0837001e017800a2c993000382fb00df
:10421000b2c993008381fb00c819dd00848171005d
:1042200003007800c2c993008381fb0052c9930048
:104230000281fb004811dd0003017100820078005b
:10424000300f9800410f98003e099000ce09900071
:104250008003210001002000800f5100818f590050
:1042600073003e008e08900010c0b300a06098005c
:104270009e00780010c0b300a0c09b0013c0b30024
:10428000c25f26006000b800073d0700e04f500005
:1042900005003a0081ae250090c0b3008048780048
:1042a0000080eb00520837003e099000ce099000d4
:1042b0007002210001002000800f5100818f590001
:1042c000040036008e08900020c0b3009060980073
:1042d000030037008e08900010c0b3009060980073
:1042e000022020008000eb00c05f2600c2f0070023
:1042f0006163260020c3b300804878000e08900058
:10430000106090000080fb00000040006101b900d7
:104310003e089000ce0890000201400083814800d2
:10432000f0fd2f00f1ff2f000200400083804800c5
:1043300040079800510798000e0890001060900008
:104340008080fb00501520000088b9000000780034
:104350000080e800cf80de00500f9800610f9800c9
:104360005e099000ee0990004e009000de00900083
:10437000020040008380480061005000e080580047
:104380005e099000ee09900088f007004007980051
:10439000510798008e08900020c0b30080609800fc
:1043a0000e089000a0509000e0c0600021509800de
:1043b000b0509000e0c060000114a000315098009f
:1043c0000e0890004e019000f10f200001016100e5
:1043d000c0589000e0c0600082c070004158980052
:1043e000ce0090004809de00d0589000e0c0600088
:1043f00082c07000515898005e019000f10f2000bb
:1044000001016100e0589000e0c0600082c07000cf
:1044100061589800de0090004809de00f0589000d6
:10442000e0c0600082c07000715898000e01370033
:104430003e099000ce099000f0d52f00f103200036
:10444000800f5100818f59008b003e008e08900034
:1044500020c0b300a06098009e00780060c0b30048
:10446000a0c09b0013c0b300c25f26006000b8006c
:104470008d3c0700e04f500005003a0081ae25005a
:1044800090c0b300804878000080eb00d807370068
:104490003e099000ce09900080de2f00f1ff2f0032
:1044a0000200400083804800100798002107980010
:1044b0008e08900010c0b300906098000b00370089
:1044c0000e08900010609000004040008e089000a0
:1044d000906098001e009000ae0090008100d10016
:1044e0000080d30010079800210798001e0190005b
:1044f000ae019000d0fe2f0001002000800f51007f
:10450000818f5900eeff3e000e08900090609000f1
:1045100000c8b30080cf50000500360081ae2500f2
:1045200040c0b300804878000080eb00b00737003f
:10453000022020008000eb00c05f26002ef0070064
:104540006163260060c3b300804878000e089000c5
:10455000106090000080fb00000040006101b90085
:104560003e089000ce089000020140008381480080
:10457000f0fd2f00f1ff2f00020040008380480073
:1045800040079800510798000e08900010609000b6
:104590000080fb004800dd000080e800cf80de00e6
:1045a000500f9800610f98005e099000ee0990008e
:1045b0004e009000de009000020040008380480022
:1045c00061005000e08058005e099000ee09900004
:1045d000f6ef070040079800510798008e089000fa
:1045e00020c0b300806098000e089000a05090009a
:1045f000e0c0600021509800b0509000e0c0600022
:104600000114a000315098000e0890004e01900057
:10461000f10f200001016100c0589000e0c060006f
:1046200082c0700041589800ce0090004809de001a
:10463000d0589000e0c0600082c0700051589800cf
:104640005e019000f10f200001016100e058900030
:10465000e0c0600082c0700061589800de009000e9
:104660004809de00f0589000e0c0600082c0700091
:10467000715898007c0037008e08900030c0b3005d
:10468000a06098009e007800b0c0b300a0c09b005e
:1046900013c0b300c25f26006000b800023c0700f0
:1046a000e04f500005003a0081ae250090c0b300f5
:1046b000804878000080eb004d0737003e089000ee
:1046c000ce08900010079800210798008e089000ef
:1046d00010c0b300906098000b0037000e089000e7
:1046e00010609000004040008e089000906098009c
:1046f0001e009000ae0090008100d1000080d30029
:1047000010079800210798001e019000ae0190004c
:10471000e0ff2b00f1032000800f5100818f590032
:10472000eeff3e000e0890009060900000c8b300bd
:1047300080cf50000500360081ae250040c0b30098
:10474000804878000080eb00290737000220200015
:104750008000eb00c05f2600a7ef07003e09900035
:10476000ce09900000fe2f00f1ff2f000200400054
:104770008380480040079800510798000e08900079
:10478000106090000080fb004700dd000000e800a2
:10479000cf80de00500f9800610f98005e099000f6
:1047a000ee0990004e009000de00900002004000f4
:1047b0008380480061005000e08058005e0990004e
:1047c000ee09900079ef0700400798005107980024
:1047d0008e08900020c0b300806098000e08900002
:1047e000a0509000e0c0600021509800b0509000b0
:1047f000e0c060000114a000315098000e08900045
:104800004e019000f10f200001016100c05890009e
:10481000e0c0600082c0700041589800ce00900057
:104820004809de00d0589000e0c0600082c07000ef
:10483000515898005e019000f10f200001016100c5
:10484000e0589000e0c0600082c07000615898009d
:10485000de0090004809de00f0589000e0c06000e3
:1048600082c0700071589800c15f2600b0ceb300be
:1048700080487800d15f2600c0c3b300804878002c
:10488000e15f260000c9b30080487800f15f260090
:10489000d0c4b300804878000160260030c4b30063
:1048a000804878001160260080c4b30080487800fa
:1048b0002160260000c5b3008048780031602600e2
:1048c00000c2b300804878004160260060c4b30095
:1048d000804878005160260010c4b30080487800fa
:1048e0006160260040c5b3008048780071602600f2
:1048f0000040eb00804878008160260020c0b300b3
:10490000804878000e0890001060900091602600aa
:10491000804878000e08900020609000e14f500021
:10492000040032000e08900020609000e24f50001a
:1049300066013a00a160260080c0b300804878007c
:10494000b16026000040eb00804878000e0990001e
:10495000a24190000382fb00b24190008381fb00e2
:10496000c819dd008481710003007800c241900005
:104970008381fb00524190000281fb004811dd0061
:10498000030171008200780068014000e081480066
:104990000e089000f10f200001026100e04090003d
:1049a000e0c0600084c07000614098004812de00e2
:1049b000f0409000e0c0600084c07000714098003a
:1049c000f10f20000182610080489000e0c060008b
:1049d00084c07000014898004819de00904890009b
:1049e000e0c0600082c0700011489800c1602600dd
:1049f00020c0b30080487800d16026000040eb0062
:104a000080487800e160260020c0b300804878002c
:104a1000f16026000040eb0080487800016126002c
:104a20000040eb00804878001161260080cfb30081
:104a3000804878004e0090000040780021612600f8
:104a4000804878004e009000de0090004809dd00ac
:104a50004800de0000007100c808de000040780059
:104a6000316126008048780041612600f0c3b30020
:104a700080487800516126000040eb0080487800b3
:104a80006161260000c0eb0080487800716126005b
:104a90000040eb00804878000e099000a241900091
:104aa0000382fb00b24190008381fb00c819dd0046
:104ab0008481710003007800c24190008381fb0073
:104ac000524190000281fb004811dd00030171009a
:104ad00082007800004078008161260080487800dc
:104ae0000e099000a24190000382fb00b2419000a9
:104af0008381fb00c819dd00848171000300780008
:104b0000c24190008381fb00524190000281fb0072
:104b10004811dd0003017100820078004809dd00c2
:104b20004800de0000007100c808de000040780088
:104b300091612600804878000e099000a241900003
:104b40000382fb00b24190008381fb00c819dd00a5
:104b50008481710003007800c24190008381fb00d2
:104b6000524190000281fb004811dd0003017100f9
:104b7000820078004008de0001002000004078003c
:104b8000a1612600804878000e099000a2419000a3
:104b90000382fb00b24190008381fb00c819dd0055
:104ba0008481710003007800c24190008381fb0082
:104bb000524190000281fb004811dd0003017100a9
:104bc000820078004808de000100200000407800e4
:104bd000b1612600804878003e08900000407800cf
:104be000c1612600804878003e089000ce08900001
:104bf0004809dd004800de0000007100c808de0042
:104c000000407800d1612600804878003e0890007e
:104c1000ce0890004008de0001002000004078002f
:104c2000e1612600804878003e089000ce089000a0
:104c30004808de000100200000407800f1612600f5
:104c400080487800016226000040eb008048780030
:104c5000116226000040eb008048780021622600a7
:104c600090c2b300804878004e2090000040780049
:104c700031622600804878004e209000de209000af
:104c8000e00f5000e08f580002003d00f00fb00030
:104c90000180b0004809dd004800de00000071001e
:104ca000c888de0000407800416226008048780015
:104cb0004e209000de209000e00f5000e08f580062
:104cc00004003d00f2ff2f0003002000000041001f
:104cd000818049004088de00cf80de0000407800ff
:104ce00051622600804878004e209000de2090001f
:104cf000e00f5000e08f580004003d00f2ff2f004d
:104d0000f30f200000004100818049004888de0048
:104d1000cf80de0000407800616226008048780085
:104d20006e209000e00f5000390032006000b800a3
:104d30006007980071079800110037006e0090001e
:104d4000fe009000b002b0000180b0006e01900043
:104d5000ee2190000281410012417800c35f2600dd
:104d600003004000024878006e009000fe009000b2
:104d700061004000e08048006007980071079800db
:104d80006e009000ee2090000080400010407800ff
:104d9000e04f5000160032006e019000fe019000be
:104da000a000200001002000800f5100818f5900d9
:104db000e2ff36000e0037006e009000fe0090000b
:104dc000b002b0000180b000c25f26008200400047
:104dd00000c2b300804878006e009000fe00900092
:104de00061004000e080480060079800710798006b
:104df0006e019000fe019000a00020000100200044
:104e0000800f5100818f5900ebff360019003700e9
:104e10006000b80060079800710798000e00370026
:104e20006e009000fe009000b002b0000180b00063
:104e3000c25f2600820040000040eb0080487800fe
:104e40006e009000fe00900061004000e08048008d
:104e500060079800710798006e019000fe019000b5
:104e6000a000200001002000800f5100818f590018
:104e7000ebff36002163260060c4b3008048780051
:104e80003163260010c4b3008048780041632600d7
:104e900040c5b300804878005163260010c3b300ba
:104ea000804878007163260000c2b3008048780013
:104eb0008163260000c2b300804878009163260019
:104ec00000c2b30080487800c5013700a160260009
:104ed00000c2b30080487800b16026000040eb00bb
:104ee000804878000e099000a24190000382fb00e8
:104ef000b24190008381fb00c819dd0084817100fc
:104f000003007800c24190008381fb005241900071
:104f10000281fb004811dd0003017100820078006e
:104f20000001be000202b0000380b0000e08900035
:104f3000f10f200001026100e0409000e0c060003d
:104f400084c07000614098004812de00f04090007c
:104f5000e0c0600084c0700071409800f10f200034
:104f60000182610080489000e0c0600084c0700051
:104f7000014898004819de0090489000e0c06000a9
:104f800082c0700011489800c160260020c0b300a4
:104f900080487800d16026000040eb00804878000f
:104fa000e16026000040eb0080487800f1602600b8
:104fb0000040eb0080487800016126000040eb00d3
:104fc000804878001161260080cfb30080487800c7
:104fd000216126000040eb00804878003161260006
:104fe0000040eb008048780041612600f0c3b30028
:104ff00080487800516126000040eb00804878002e
:105000006161260000c0eb008048780071612600d5
:105010000040eb00804878000e099000a24190000b
:105020000382fb00b24190008381fb00c819dd00c0
:105030008481710003007800c24190008381fb00ed
:10504000524190000281fb004811dd000301710014
:105050008200780000407800816126008048780056
:105060000e099000a24190000382fb00b241900023
:105070008381fb00c819dd00848171000300780082
:10508000c24190008381fb00524190000281fb00ed
:105090004811dd0003017100820078004809dd003d
:1050a0004800de0000007100c808de000040780003
:1050b00091612600804878000e099000a24190007e
:1050c0000382fb00b24190008381fb00c819dd0020
:1050d0008481710003007800c24190008381fb004d
:1050e000524190000281fb004811dd000301710074
:1050f000820078004008de000100200000407800b7
:10510000a1612600804878000e099000a24190001d
:105110000382fb00b24190008381fb00c819dd00cf
:105120008481710003007800c24190008381fb00fc
:10513000524190000281fb004811dd000301710023
:10514000820078004808de0001002000004078005e
:10515000b1612600804878003e0890000040780049
:10516000c1612600804878003e089000ce0890007b
:105170004809dd004800de0000007100c808de00bc
:1051800000407800d1612600804878003e089000f9
:10519000ce0890004008de000100200000407800aa
:1051a000e1612600804878003e089000ce0890001b
:1051b0004808de000100200000407800f161260070
:1051c000804878004e009000004078000162260080
:1051d000804878004e009000de0090004809dd0015
:1051e0004800de0000007100c808de0000407800c2
:1051f00011622600804878004e009000de0090008a
:105200004008de00010020000040780021622600f6
:10521000804878004e009000de0090004808de00d4
:1052200001002000004078003162260080487800ac
:10523000416226000040eb00804878005162260061
:105240000040eb0080487800616226000040eb00df
:1052500080487800716226000040eb0080487800aa
:105260008162260020c0b300804878009162260049
:105270000040eb0080487800a16226000040eb006f
:1052800080487800b16226000040eb00804878003a
:10529000c162260010c0b30080487800d1622600a9
:1052a0000040eb0080487800e16226000040eb00ff
:1052b00080487800f16226000040eb0080487800ca
:1052c000016326000040eb0080487800116326004f
:1052d0000040eb0080487800216326000040eb008e
:1052e00080487800316326000040eb008048780059
:1052f000416326000040eb0080487800516326009f
:105300000040eb0080487800616326000040eb001d
:1053100080487800716326000040eb0080487800e8
:10532000816326000040eb008048780091632600ee
:105330000040eb0080487800a16326000040eb00ad
:1053400080487800b16326000040eb008048780078
:10535000c16326000040eb0080487800d16326003e
:105360000040eb0080487800e163260090c2b30063
:10537000804878004e20900000407800f1632600bd
:10538000804878004e209000de209000e00f500012
:10539000e08f580002003d00f00fb0000180b00027
:1053a0004809dd004800de0000007100c888de000a
:1053b0000040780001642600804878004e2090006c
:1053c000de209000e00f5000e08f580004003d0008
:1053d000f2ff2f00030020000000410081804900ff
:1053e0004088de00cf80de00004078001164260097
:1053f000804878004e209000de209000e00f5000a2
:10540000e08f580004003d00f2ff2f00f30f200052
:1054100000004100818049004888de00cf80de0026
:105420000040780021642600804878006e209000bb
:10543000e00f5000390032006000b80060079800ab
:1054400071079800110037006e009000fe00900078
:105450007004b0000180b0006e019000ee21900059
:105460000281410012417800c35f26000300400022
:10547000024878006e009000fe009000610040003d
:10548000e080480060079800710798006e00900067
:10549000ee2090000080400010407800e04f500067
:1054a000160032006e019000fe019000a000200066
:1054b00001002000800f5100818f5900e2ff36006b
:1054c0000e0037006e009000fe0090007004b000e7
:1054d0000180b000c25f26008200400000c2b3001d
:1054e000804878006e009000fe009000610040004f
:1054f000e080480060079800710798006e019000f6
:10550000fe019000a000200001002000800f51004b
:10551000818f5900ebff3600190037006000b8009a
:1055200060079800710798000e0037006e00900029
:10553000fe0090007004b0000180b000c25f260041
:10554000820040000040eb00804878006e00900030
:10555000fe00900061004000e08048006007980075
:10556000710798006e019000fe019000a0002000dd
:1055700001002000800f5100818f5900ebff3600a1
:10558000e164260060c4b30080487800f16426001e
:1055900010c4b300804878000165260040c5b30000
:1055a000804878001165260030c3b3008048780039
:1055b0002165260020c3b3008048780031652600ad
:1055c00000c2b300804878004165260000c2b300e5
:1055d000804878005165260000c2b30080487800fa
:1055e000a17f260050c5b30080487800b17f260017
:1055f000a0cab300804878000e089000e0409000f8
:105600000181fb00f04090008180fb00c808dd00b4
:105610008280700001027800804890008180fb0049
:10562000104890000080fb004800dd000100700081
:10563000800278000e089000006090000081fb005e
:10564000030020000e0b9000c65b90000784fb0057
:10565000d65b90008783fb00c83bdd008883730026
:1056600007007800e65b90008783fb00765b900084
:105670000683fb004833dd000703730086007800d3
:10568000009bb90006037800028cb90088037800fb
:10569000070343000010b8000103430086007800b0
:1056a00004014000858148000e089000f10f2000a1
:1056b00001026100a0489000e0c0600084c070005a
:1056c000214898004812de00b0489000e0c0600019
:1056d00084c0700031489800f10f20000182610001
:1056e000c0489000e0c0600084c07000414898004d
:1056f0004819de00d0489000e0c0600082c0700011
:10570000514898000e099000a24190000382fb00ce
:10571000b24190008381fb00c819dd0084817100d3
:1057200003007800c24190008381fb005241900049
:105730000281fb004811dd00030171008200780046
:105740008041eb00c25f2600d7370700e04f5000d2
:1057500013003a0081ae250090c0b3008048780065
:105760000080eb00220337000e0890004af5070086
:10577000e04f50000c00320081ae2500b0c1b300f4
:10578000804878000080eb001903370081ae2500c7
:10579000f0c1b300804878000080eb0014033700ac
:1057a000000000000100370000000000022020007f
:1057b0008000eb00c05f26008feb07000e08900012
:1057c00020609000e34f500071013a00c15f260055
:1057d00080cfb30080487800d15f260000c0eb0086
:1057e00080487800e15f260000c0eb008048780028
:1057f000f15f260000c0eb008048780001602600c1
:105800000040eb0080487800116026000040eb006b
:1058100080487800216026000040eb008048780036
:1058200031602600c0c0b300804878004160260087
:1058300000c0eb00804878005160260000c0eb00fb
:10584000804878006160260000c0eb008048780046
:105850007160260000c0eb00804878000e089000c0
:10586000006090000080fb000000e9003007980015
:10587000340037000e089000e04090000181fb00ea
:10588000f04090008180fb00c808dd00828070003d
:1058900001027800804890008180fb001048900051
:1058a0000080fb004800dd000100700080027800ed
:1058b0003e0090006101b8000e0b9000c65b9000a6
:1058c0000784fb00d65b90008783fb00c83bdd00ac
:1058d0008883730007007800e65b90008783fb00f5
:1058e000765b90000683fb004833dd0007037300fe
:1058f00086007800009bb90006037800028cb9008e
:1059000088037800070343000010b8000103430038
:105910008600780004004000858048008041eb004c
:10592000c25f260060370700e04f500002003a00d7
:105930000080eb00ae0237003e0090000000e9005e
:10594000300798003e009000e10f4000c9ff3a0088
:10595000c20020008000eb00c05f260026eb07009d
:105960000e099000e24190000382fb00f24190009a
:105970008381fb00c819dd00848171000300780079
:10598000824990008381fb00124990000281fb0054
:105990004811dd00030171008200780061004000c1
:1059a000e0804800600798007107980036003700d3
:1059b0000e089000006090000080fb000000e900ed
:1059c00030079800270037003e0090006101b800c2
:1059d0000e0a9000c45a90000583fb00d45a900030
:1059e0008582fb00c82add008682720005007800ef
:1059f000e45a90008582fb00745a90000482fb00f8
:105a00004822dd000502720084007800009ab90087
:105a100004027800028bb900860278000502420079
:105a20000010b80001024200840078006e0190006e
:105a3000fe01900000004100818049008041eb00a0
:105a4000c25f260018370700e04f500002003a00fe
:105a50000080eb00660237003e0090000000e90085
:105a6000300798003e009000e10f4000d6ff3a005a
:105a70006e009000fe00900061004000e080480051
