:020000040000fa
:080000000002040000000000f2
:020000040000fa
:10000800cc020000d602000006030000e402000053
:10001800f2020000fc0200000603000006030000d4
:1000280006030000060300000603000006030000a4
:10003800f6f800000603000006030000d2170000cf
:10004800060300000603000006030000581700001e
:1000580094170000060300000603000006030000d2
:100068000603000006030000060300000603000064
:100078000603000006030000060300000603000054
:100088000603000006030000060300000603000044
:100098000603000006030000060300000603000034
:020000040000fa
:100400008faf24000eff28000e01880000000000be
:100410000c00070000722f00010020000f000700f1
:10042000000020000000e000020032000000020096
:100430000000000066f50200000000000040da0045
:100440000000fe00400a20000000e0000200320030
:10045000002020009001880000000600a102880012
:10046000800078000000eb001a003700e2804000b6
:1004700054a0b4009101ba00e280400054a0b4003e
:100480009102ba00e280400054a0b4000002eb00e8
:10049000472bde00f507b200a6018800602ce100c2
:1004a00008003a000049eb000201e80002003900b0
:1004b0003420ec0002f0a0008301e900f9ff3e00c7
:1004c000040037006128e100010032000082eb00e7
:1004d000040007001101ba000200e000e3ff3a0047
:1004e0000000060004d0a300e20f49001c00390000
:1004f000810278003549ba000201e80002003900a3
:100500003420ec0002f0a0008301e9000f0032006b
:100510002549ba000201e800020039003420ec004d
:1005200002f0a0008301e900080032000400e000ae
:100530000600320015c9ba000201e80002003900c5
:100540003420ec0002f0a0008301e9008180e80083
:1005500054a0b4000300e000e2ff3a0000000600ef
:100560009102ba00055978008301e900f7ff3200d3
:10057000c82ade00055978008301e900f3ff320044
:100580000400e000f1ff320011d9ba00eeff37009d
:1005900084f60400000000000000fa00c028a90052
:1005a000006ea900046ea800ffff37000000fa00eb
:1005b000c068a900002ea900042ea800006ea900a2
:1005c000046ea800ffff37000000fa00c048a90031
:1005d000000ea900040ea800006ea900046ea80079
:1005e000ffff37000000fa00c088a900006ea900d4
:1005f000046ea800ffff37000000fa00c0a8a900a1
:10060000006ea900046ea800ffff37000040da006a
:100610000000fe001004b100070035009001b10099
:10062000040034007000b100030035009001b100f7
:1006300001003c0010000500000005006900e10019
:10064000040035006d00e100030034000002b10039
:100650000100320000000500100005001004b10088
:10066000030035009001b10001003c0010000500be
:1006700000000500800078001104b100030035007f
:100680009101b10001003c000050a00000000600f4
:10069000800078001106b100030035009101b1001f
:1006a00001003c000050a100000006006022b800dc
:1006b000060220000000d0008180d2000482d20017
:1006c0008582d2000000a0000202520083825a00fc
:1006d000030031000202420083824a000000a100b0
:1006e0000603e900f3ff3a0000000600efff0700f1
:1006f0000400be00000006000000fa00800178003f
:100700000200370081597800040178000202e900f4
:10071000e00f5100fbff3a000080fa0000000600e5
:100720000000fa0080017800314178008259780099
:10073000e04f5100fcff3a000080fa000000060084
:100740000000fa00800078000041eb00b14f11007a
:10075000fdff3a000080ea00008040000080fa00bf
:10076000000006000000fa00800178000600370053
:100770000201e9001142780084597800e04f5200ec
:10078000060032008100e800e00f5100f8ff3a0057
:10079000020037008059eb00010178008200e90077
:1007a000e00f5100fbff3a000080fa000000060055
:1007b0000c00fa00889fbe0000047800f0ff2700bc
:1007c000500798008004eb0019079800080f780084
:1007d00028079800200c2000300798006801570077
:1007e000ceb897000e007800c00107001e00780008
:1007f000094878001e0014004f04be000080fa0073
:10080000000006000c00fa00000f78002007980096
:10081000cbff07001007980050079800100c20002d
:100820003007980068015700ceb897000e00780096
:10083000380007000080fa00000006000000fa00ff
:10084000881f7800a0578200bc05070000047800cc
:100850000800780079ff0700e00f5000f9ff3a0028
:10086000e10f440003003200a15782000800780025
:100870007c0607004f0478000080fa0000000600a4
:100880000000fa00889fbe008a1f780000047800ec
:10089000814478000205780000fd2f000800400028
:1008a000e90f500002003e000004780010003700fd
:1008b0000800780069ff0700e00f500005003200d3
:1008c000e00f5500030032000800780069ff0700c0
:1008d00000047800080078004eff070080007800d0
:1008e00000c0eb00e08f5000060032007805b10038
:1008f0008984fb0000c0eb00890f540001003d001b
:10090000084078004f0578004f04be000080fa00d0
:10091000000006001000fa00889fbe008a9fbe00fb
:100920008c9fbe0080017800510798004207980014
:10093000a3578a000000eb00200798008040780051
:10094000414f98005e0137005e0090000000e80013
:10095000500798000885fb000a00780037ff070061
:10096000e00f500002003200b4ff070054013700ce
:1009700051c2b300814f540042013a0021c0b3007c
:10098000804678005e02900001457800840478007b
:10099000040037002ac0b300010037004ac0b3008a
:1009a000090278003944780081c6b300814f5400b1
:1009b000f8ff320015003e00f0c05000814f540097
:1009c0002e0032000a003e00ecc05000814f54005f
:1009d0002600320086003e00e04f5400bc0032008a
:1009e000a1c2b300814f540081003a001d003700be
:1009f00031c6b300814f5400600032008140e800ee
:100a0000814f54007a003a008d00370031c7b3009f
:100a1000814f54002100320007003e00e7c0500023
:100a2000814f540011003200e3c04000814f540058
:100a30006f003a008700370051c7b300814f540060
:100a40007f003200e3c04000814f540068003a004c
:100a50002a47980000467800590798008000eb006c
:100a60000a0037008d46e800cdff3700e24f550001
:100a7000caff32008ac0b300c9ff37002a47980076
:100a800000467800590798001100200021079800bf
:100a900000c1b3003047980073003700004678006b
:100aa0005907980065ff0700e0cf560004003a00a0
:100ab000ce00900041007800410798003007980070
:100ac000a05782001d05070000047800e10f4400d4
:100ad00014003a0008007800f5003700de009000ae
:100ae0001100fb00800f540005003a000a00780056
:100af000300798008100e800510798001700370080
:100b0000e0cf560001003a00085d78000c46e9008d
:100b10000d003200a057820008050700000478008d
:100b2000010037003e0590000800e800e10f50008a
:100b30000800360008007800c0fe0700e00f5000f3
:100b4000e6ff3200030037000a0078003007980003
:100b5000020037008a00780031079800e0cf560085
:100b6000d7003a004e4890000040e800404f9800ff
:100b7000be0090008d487800d10037000046780014
:100b800059079800e0cf560008003a004e48900000
:100b90000040e800404f9800ce00900041007800ef
:100ba0004107980000047800010037003e049000df
:100bb000a0578200e104070080007800e18f400028
:100bc00002003a0001007800b9003700e0cf56007b
:100bd00001003a00015c78000c46e9004240a9009f
:100be000f3ff3c000800780030079800b40037009d
:100bf0000884fb0000fd2f0008004000e90f5000b2
:100c000009003e0004007800a60407000100370038
:100c10008904e8009900fb000103b100e98f50004e
:100c2000fbff36005eff370059079800a05782008f
:100c3000c2040700800f540098003a00a00037005b
:100c40002a4798000046780059079800a0c0b300d2
:100c500090ff37002a47980000467800590798000f
:100c600081c0b30031479800f4fe0700a05782000e
:100c7000b2040700800278000040eb0010479800a3
:100c8000d3022000838f520005003a00a057820053
:100c9000aa0407008002780011c0b3001147980031
:100ca0002e019000be409000050078007507980066
:100cb000f3fe070080417800fe029000e1cf410082
:100cc0000e003a00a1578200050078006505070074
:100cd0004e489000e04f5000020032000080fb00c0
:100ce0007d003700a0578200300090007000600047
:100cf000790032000080eb0077003700030320000a
:100d0000838f52001b003a00a0578200750798009d
:100d10008a0407008001780084072000fe0290000a
:100d2000848f510004003a00ae009000e08f500024
:100d3000070032000a00370084052000848f51002c
:100d400007003a002e009000e00f5000040032002f
:100d5000a057820079040700800278000500370060
:100d6000a157820003007800750798003d05070031
:100d7000fe0290006044b800be4090000185fb0078
:100d80000b0020000d4f7800850678000a01be0098
:100d90000800be00260607000004be002e019000d9
:100da000be4090000d007800b5fe070000427800bc
:100db0000482fb00050020000404440085844c00ec
:100dc0000c46e9000a003200a05782005b040700cd
:100dd000800678002e019000be4090000d00780043
:100de000a7fe070080417800e1cf4100e7ff3a000d
:100df0008d0278009e4678002e019000be40900043
:100e000005007800750798009dfe07008040780077
:100e1000fe029000e1cf400003003a00a15782009b
:100e2000050078000f0507001e409000e04f5000bd
:100e30000200320060041400e0841c00e0cf560081
:100e40001f003a00ce4890008140e800414f9800d2
:100e5000ce0090000180e900ae409000e4cf500049
:100e600004003a0040079800900078008888be008f
:100e70001300370040079800900078008808780039
:100e80000f003700a05782002c0407008000780074
:100e9000810f55000a00320001007800e10f400088
:100ea00003003200a1578200ee040700080037005b
:100eb000ce489000e0cf500006003a000600370010
:100ec0005e00900010447800e04f54009efe3a000f
:100ed000ce4890000180fb004f06be004f05be00cb
:100ee0004f04be000080fa00000006004200fa0035
:100ef000889fbe008a9fbe008c9fbe00201f980066
:100f000061179800721798000000eb00101f9800fe
:100f1000d9033700ee1090008100e80061179800b7
:100f200052c2b300824f520007003a000001eb00aa
:100f3000721f980006c3b30003c2b300b1c2b3006e
:100f40006e10900014003700ae199000330190002d
:100f50000204b20005003200930178008449780051
:100f60002e1a9000030ae800070037000401fb0076
:100f7000ae189000020078007304070000017800aa
:100f8000e10f4100bc0332009e1a90008502e80088
:100f9000151f9800b803370010427800d7c2b3007d
:100fa000874f52000b0032008002e800874f52004a
:100fb00005003c00834f520009003200814f52006f
:100fc0000e003a0008003700864f52000b003a002e
:100fd000070037000230a0000000e800eeff3700f5
:100fe0000200a000030037000210a000010037003b
:100ff0000220a00005007800e7ff3700721f98006c
:1010000060179800e2016100020032000200a100b6
:10101000721f98007e1c9000e801640002003200fc
:101020000820a100781f98008401fb000303b10091
:10103000e98f51000e003e00010020006e1190006b
:10104000ea08b80001fd2f00808040001200fb007c
:10105000808040005200fb000003b100e90f500007
:10106000f7ff360021179800621798000c00370030
:101070000005eb002a179800a2c2b300824f52006d
:1010800007003a00fe1590004b0078007b1798008f
:1010900020179800ee1090008100e800611798007a
:1010a0000001eb00021f9800e2c2b300ee119000b5
:1010b000934f110022003a007e1a900004e0a00035
:1010c000741f9800644151008301e8006317980081
:1010d0009342780082cf52000e003a007e139000b7
:1010e000c603780076179800071f9800030478005d
:1010f0000804e80004017800880178001200370035
:10110000ea18b8000003b100810140000201e800c4
:10111000020037008e1990006e1190009200fb00c3
:1011200000fd2f0001004000e90f5000f4ff3600e1
:10113000031f9800820178007e199000020037009a
:101140007e199000ee119000b3427800054f7800b0
:10115000c9c6b30089cf520024003200721f980024
:10116000631798000f003c0036c6b30086cf5200cc
:10117000ab00320004003c00e0cf520043033200d9
:1011800082c5b3000f00370042c6b30082cf5200c1
:10119000c80032006541410082cf5200be003a00d3
:1011a000c400370036c7b30086cf5200200032009b
:1011b00007003c00f2c6b30082cf5200110032009b
:1011c0000241e80082cf5200b3003a00110037001c
:1011d00052c7b30082cf5200b300320063414100d6
:1011e00082cf5200ac003a000d0037007000610061
:1011f0000100280001003a000101200001017100f6
:10120000d1ff37007e1d90000a60a0007a1f980071
:10121000a8003700fe1d90000b50a0007b1f980017
:101220007e1890000070a000701f9800a100370089
:10123000fe1090004103780071179800361f980047
:10124000e00f530002003a0003aa2400331f980065
:101250000002eb00441f9800020037008100e80004
:10126000411f9800ce189000be1a900005804000e3
:101270000043eb00904f1300f8ff3a008e1b9000e4
:10128000e08f5300050032004e1c9000888f530001
:101290000200310087047800491f98004e1a900020
:1012a0000006eb002e159000840f5500010036005b
:1012b00004065500fe1d9000e886650031003a00e6
:1012c0008c01780008c2b300ae1c900010003700fb
:1012d000390090000004b2000400320019007800c8
:1012e00008487800800ce800050037008900780085
:1012f0000002200094030700e10f400003003200c9
:101300001e1890000000e800101f98008c01780063
:101310000c06e900e08f5100edff3a00190037009c
:10132000340090000004b2000900320094017800fb
:10133000080178003240780080497800030ae8000c
:1013400002047800e04f50000a003a001200370013
:10135000080178003200fb00020478008400780065
:1013600004279800780307000e229000e10f400048
:10137000090032009e1890008100e800111f9800bb
:10138000050037003e1c9000ce1c90005e1d9000b2
:10139000ee1d90002e1a9000090078008004e900ec
:1013a000e00f5000deff3a00381f9800491f9800f8
:1013b0005a1f98006b1f9800e08f5600ae02320053
:1013c00011003700380090000004b2000400320021
:1013d000180078000d487800000ce8000500370080
:1013e000880078000002200057030700e10f40004a
:1013f000030032009e1a90008502e800151f980035
:1014000009067800020037000dc2b3002e1c9000c0
:101410008c04e900e00f5600eaff3a00960237001c
:101420007e1390004604780076179800cfc4de0043
:10143000090578008a0578000802be000a03be008c
:101440004822de004828dd0004027000044f7800c6
:10145000fe1890007086600009003200e04f5200d4
:1014600007003200e14f42000500320014479800a7
:101470002847980022002000421f980003003700f0
:101480001847980013002000431f98000e02e80040
:10149000341f980079ff37003e1f98001600200087
:1014a000461f980075ff3700fe1b9000070cb30025
:1014b000771f98007e189000000cb2003f003a00a1
:1014c0007e1c9000e00f540005003d007e1290004d
:1014d0004401be004400be0074179800100037009d
:1014e000fe1a900070806200120032007e1490009c
:1014f0004803be00781798004607980057079800e1
:10150000180090004f80de00600798007007980078
:101510004e009000de0090006e019000fe019000f1
:10152000301f9800411f9800521f9800631f9800b9
:101530000b003700fe109000c10278007117980070
:1015400005047800cfc4de00090578008a0578001c
:10155000381f9800491f98005a1f98006b1f980069
:101560003e189000ce1890005e199000ee19900081
:10157000e00f5000e08f5800e00f5900e08f590055
:1015800036003d00fe1890003100b300711f980036
:101590006022b8006033b8003e1c9000ce1c900062
:1015a0005e1d9000ee1d90000804520089845a00d0
:1015b0000a055b008b855b0024003700fe1c900051
:1015c000e08f540005003d007e1290004401be00f3
:1015d0004400be007417980010003700fe1a9000f7
:1015e00070806200120032007e1490004803be003a
:1015f00078179800460f9800570f98008004eb006a
:10160000690f98000005eb007a0f98004e089000d3
:10161000de0890006e099000fe099000301f9800cf
:10162000411f9800521f9800631f98000b0037005d
:10163000fe109000c1027800711798000504780030
:10164000090020000a0020000b002000381f98002d
:10165000491f98005a1f98006b1f98008e1c90001d
:10166000e08f54000d003a001a0020000a1f980075
:101670003e189000ce1890005e199000ee19900070
:10168000e00f5000e08f5800e00f5900e08f590044
:10169000020032008000eb00011f98007e199000cc
:1016a000020cb2001217980006042000860f5100a9
:1016b0003d00320003003c00e00f51000800320002
:1016c00053003700050820009e119000858f5100bf
:1016d0001a003200050c2000858f51004c003a00a2
:1016e00012c0b300024f7800419a24000f00370067
:1016f0000200fb004300dd00008040003002be001d
:101700002003be003e1c9000ce1c90005e1d900089
:10171000ee1d90000440e10005c8e10006d0e100a4
:1017200007d8e1003a003900024fe8001e41780076
:10173000f44f5100eeff3a003500370012c0b300fd
:10174000024f780004012000050020006033b8003b
:10175000110037003e1c9000ce1c90005e1d9000d2
:10176000ee1d90000440e10005c8e10006d0e10054
:1017700007d8e10026003900490020000402d0000b
:101780008582d2000683d2008783d2008904e900d3
:10179000faff3a00004fe8001e407800f04f50007a
:1017a000ecff3a001a00370012c0b300024f780075
:1017b00084002000050020006033b80011003700cd
:1017c0003e1c9000ce1c90005e1d9000ee1d90000f
:1017d0000440e10005c8e10006d0e10007d8e100bf
:1017e0000b003900390020000402d0008582d200ad
:1017f0000683d2008783d2008904e900faff3a0009
:10180000004fe8001e407800f54f5000ecff3a0012
:101810001e03fb000e1d90008a0f530002003d00c6
:101820000a4f7800040037008e1d9000868f550007
:1018300001003d00061f98002e109000e00f5000a0
:1018400005003200fe189000e382600002003200c2
:101850000000e90020179800050024007e19900080
:101860008502610009003200ae1190000e1a90004e
:10187000848f5100030034008481510023179800a5
:10188000020037008002eb00251798001e03fb00c2
:101890008003eb00071798002e149000860f540069
:1018a000020034000603540006179800fe1c900046
:1018b000e48264004c00320062836400e1836400cf
:1018c000e00f53001b0032002e1d9000ba02900062
:1018d0000504b200090032001a047800b6c2b30051
:1018e000e08f53000100320006c3e800064c780088
:1018f000ae1d9000880de8000a003700d6022000d7
:10190000e08f530001003a000683e900ae18900012
:10191000060078000c02070000017800e10f41008a
:10192000180032001e1890000000e800101f9800f8
:1019300014003700e08f530012003200ae18900000
:10194000b10290000504b2000500320011037800d6
:1019500002c2b300024b78008608e8000600370098
:10196000ae18900000022000f70107000001780087
:10197000e10f4100030032001e1990000201e8004f
:10198000121f98008e119000e08f51001701320055
:1019900008c3b300830678002e1e90003c00900020
:1019a0000004b200040032001c00780008487800ef
:1019b000000ee800050037008c00780000032000ce
:1019c000e1010700e10f4000030032001e1a900001
:1019d0000402e800141f98008d06e900efff3a00aa
:1019e0000d179800010137008e129000e08f520011
:1019f000180032007e1b9000e802630015003a00d8
:101a000008c2b3008e1690002e1e90003c0090007d
:101a10000004b200040032001c007800084878007e
:101a2000000ee800050037008c007800000220005e
:101a3000c5010700e10f4000030032009e1b90002b
:101a40008703e800171f98008d06e900efff3a00b2
:101a50000d1798007e1c900062036400e10364008f
:101a6000e00f53001b003200ae1c9000b902900042
:101a70000504b2000900320019047800b6c2b300b0
:101a8000e08f53000100320006c3e800064c7800e6
:101a90002e1d9000080de8000a003700d602200035
:101aa000e08f530001003a000683e900ae18900071
:101ab00006007800a401070000017800e10f410052
:101ac000ca0032009e1d90008b05e8001b1f980085
:101ad000c6003700e08f5300c40032002e1890007b
:101ae000b00290000504b200050032001003780037
:101af00002c2b300024b78000608e8000600370077
:101b0000ae189000000220008f010700000178004d
:101b1000e10f4100b50032009e1890008100e800fe
:101b2000111f9800b10037000e1990000201e90062
:101b3000021f9800000420009e119000808f510029
:101b40008500320003003c00e08f510008003200a5
:101b500092003700000820001e129000800f5200f3
:101b600066003200000c2000800f52008b003a000b
:101b70008e1a90004328dd007e1b9000e00f53007a
:101b80002a003d00479a2400008043003004be0034
:101b90002005be0028179800391798004a179800aa
:101ba0005b1798000802be000a03be003e189000b2
:101bb000ce1890005e199000ee1990002c030700db
:101bc000004f78000004fb00cfc4de000905780058
:101bd0008a0578002e129000be1290004e139000dd
:101be000de1390000800be000a01be009403070047
:101bf0000203be000002be003e189000ce18900006
:101c00005e199000ee199000040050008580580085
:101c10000601590087815900301f9800411f980024
:101c2000521f9800631f980031003700be009000db
:101c3000e08f50001f0032003e1e9000ce1e90002c
:101c4000429a2400000041003004be002005be007e
:101c50000801be000c00be0094fa0700004f780097
:101c60000000fb00cf80de000801be00700207000c
:101c70000002560081825e00040f9800150f980044
:101c80008002eb00250f98000003eb00360f980050
:101c90000e0c90009e0c90002e0d9000be0d90003a
:101ca000381f9800491f98005a1f98006b1f980012
:101cb0000f003700499a240000804400100178008a
:101cc0003e1d9000811f7800110009000285d80098
:101cd000cf007800a2002000811f780011000900c9
:101ce0000280d80001007800cf007800004f780013
:101cf0000bc3b3001ecf450028003700e4a7240023
:101d00002e009000e00f500001003a00f4a82400db
:101d10008e1890004209dd003e1c9000ce1c900001
:101d20005e1d9000ee1d9000820278008502e900a1
:101d3000050033008b05d1000a85d3008984d300c8
:101d40000884d300f9ff37006f00640000004200f0
:101d5000104f7800110037000e1b9000e330b800e0
:101d60003e1c9000ce1c90005e1d9000ee1d900069
:101d7000000278000402e900050033008b05d10061
:101d80000a85d3008984d3000884d300f9ff370083
:101d90006740640005c3b300054f40002e1b900050
:101da000360090000004b2000700320016017800ef
:101db0001e40780000497800020be800e04f500018
:101dc00006003a000f0037001e00fb00ae1890001e
:101dd000dd000700e10f40000a0032009e1b90006a
:101de0008703e800171f9800060037007e1c90004c
:101df0007004640038079800fe1c90000902b200cd
:101e0000290798000e1d9000e00f550046ff3a008c
:101e1000fe1d900068816500170032000e109000d2
:101e2000e00f50001400340008c2b30080067800b0
:101e30002e1e90003c0090000004b200040032000e
:101e40001c00780008487800000ee8000500370004
:101e50008c00780000022000bb000700e10f40006a
:101e6000030032009e1890008100e800111f9800c6
:101e70008d06e900efff3a006e11900012427800e3
:101e8000044f7800e04f520022fc3a001e189000e8
:101e90004f06be004f05be004f04be000080fa0092
:101ea000000006000000fa0002c2b3000100370083
:101eb0000000e8009040780082cf5000fcff320024
:101ec000e9cf5000faff3200d2c2b30082cf5000f7
:101ed00003003a000000e80012c0b300050037001c
:101ee0000041eb00b3c2b30083cf500001003a00c1
:101ef0000000e8008000eb0005003700ea0ab800a7
:101f000001fd2f0084804000838040000000e80035
:101f10009001fb0004fd2f0003024200e90f520074
:101f2000f6ff3600e04f5100010032008100ea0068
:101f3000010078000080fa00000006000000fa00ae
:101f4000881f78000004780038009000f1006000dd
:101f5000e18f500006003a00800078000120b200b6
:101f60000800320098009000e08f50000500320019
:101f7000380090000040a000300498000080eb0082
:101f8000200037000090a100300498001800900055
:101f9000e00f5000070034000000e9001004980032
:101fa00098007800114178000280fb00010ce800e5
:101fb00005003700380090000004b200ecff3a0042
:101fc0000800780012000700b80090000108b20075
:101fd0000c003a00fa0f500008003a002800900068
:101fe000e00f5000e2ff3200180090000000e8000f
:101ff00010049800180ce900ddff3700ed0f5000c9
:10200000e2ff32004f0478000080fa000000060072
:102010000200fa00889fbe008a9fbe00000478007c
:102020000000eb0010049800b8009000e180600010
:102030000080eb0040003200c0ae24008040eb0086
:1020400090cf10000f00320089aa24002b1020002e
:102050004a02200009054500390090002010b20016
:102060008b0f500002003a00090078009c00070026
:10207000ec8444008a8f5400f7ff3a00c0ae24007d
:102080000048eb0058019000e00f51000e003a00ac
:1020900012049800120020008e0078004800900082
:1020a000fd000700e10f500003003a001e417800d8
:1020b0000280fb0020003700380090000040a000a4
:1020c0003004980013003700a800900048009000ea
:1020d000f100070010049800e00f500003003200e8
:1020e000e10f40000d003a00030037003800900077
:1020f0000040a00002003700380090000003b30049
:102100003004980028009000000c78000000eb00dc
:10211000100498000080eb0007003700a800900032
:10212000010c78000000e9001004980011417800cb
:102130000280fb00010ce8004f05be004f04be000a
:102140000080fa00000006000000fa00889fbe0030
:1021500001047800b8009000628160008084eb0088
:102160003c003200810178000320b2001801900089
:1021700002003a00e00f510036003a000190a00042
:102180003104980080047800f90fb200e00f51008c
:1021900002003a0028009000000c7800ea8f5400fa
:1021a00006003a00010078000008b20003003a007f
:1021b00088007800d0002000e3ff0700180090009e
:1021c000d8009000810f50000b0032000000e800a2
:1021d000100498001800780009487800000ce80006
:1021e00010c0b300c1ae240080487800ea8f5400cc
:1021f00018003a0005003700880078000940780090
:102200006300070080047800120037003800900057
:102210000010b2000f00320018019000a8009000da
:1022200048009000d300070098009000810f5000f4
:1022300004003200380090000003b300300498001e
:102240008084eb000000eb00100498002800900050
:10225000000c7800090078004f04be000080fa00ee
:10226000000006000000fa00e10f40001a003200f2
:10227000310190001220b200e10f510015003a0028
:1022800021029000e00f5200120032001101900074
:10229000d1019000830f51000e00320091017800af
:1022a000848f510002003a008308e80002003700e2
:1022b0000201e800920098001101e900820878000c
:1022c000b10090000104b20003003a000049780018
:1022d000010037000080eb000080fa0000000600db
:1022e0000000fa00881f7800000478003800900091
:1022f000800078001120b200e18f500005003a0004
:102300008000eb0011049800a8009000010c7800f8
:1023100019003700000178002220b2000000eb0015
:1023200021202000810f510016003a00a8009000e3
:10233000808f50001300320018019000800f510070
:1023400010003200480090008a00070098009000ba
:10235000810f500003003200380090000003b300ea
:10236000300498000000eb00100498002800900052
:10237000000c7800380090000002b200010032002a
:102380000080eb004f0478000080fa000000060097
:102390000200fa00889fbe00004f78000104780018
:1023a00038009000800078000104b20032003a004a
:1023b000e200600005003a000003b300300498001a
:1023c000110498000080eb002c003700d804900026
:1023d000e08f540006003a00120020008e007800c2
:1023e000480090006300070019049800220037009d
:1023f000a8009000e08f500008003a00f1ae2400e1
:1024000021049800010c780021002000510498005c
:10241000110498000030a0003004980018019000ca
:10242000a80090004800900052000700280090008b
:102430008080eb00110498001e487800000ce80032
:10244000a0c0b3009e4f10000b003a00380090006f
:102450000010b2000800320018019000a80090009f
:1024600048009000430007000000eb0010049800b3
:1024700028009000000c78001e00fb004f04be00f6
:102480000080fa00000006000000fa0000c0da0038
:102490000080fa00000006000a00fa00e00f500079
:1024a00026003a00b0578200e10f500006003200cb
:1024b0008023200065232000242320000323200004
:1024c000e00f500004003a00802220006522200026
:1024d000242220000322200006002800930363002a
:1024e00002003a00070878009309730002007800a0
:1024f0000c0037008301e9009403780061836300d6
:1025000002003a00e08f5100faff3a00140378000d
:10251000e1016300070032009501780083587800dc
:102520000000e900e00f500002003200030a200022
:10253000f1ff3700000051000800370023002000a1
:10254000030f7800100798002107980032079800c1
:102550000e007800ccff07003e0090000080fa00db
:10256000000006000000fa0000c0da000080fa0057
:10257000000006000a00fa00e20f500021003e00b1
:10258000b0578200e10f5000060032008523200082
:10259000442320002323200000232000e08f52004a
:1025a00004003a008522200044222000232220003b
:1025b00000222000060028009003630002003a0079
:1025c000870a7800100873000040200013006000a4
:1025d00001003a0013a0a0000200780006003700b6
:1025e000930278000510b200fdff3200b102fb003b
:1025f000050a78000000e900e00f5000f8ff3a00fb
:102600000800370033002000030f780010079800ff
:1026100021079800320798000e007800d1ff0700cc
:102620003e019000020078000080fa0000000600e1
:10263000020ab900001bb9000200b8008100420084
:1026400081004300000006000000fa00889fbe00e1
:102650008a9fbe003004be002005be000404440072
:1026600085844c0006054d0087854d000898be0006
:102670000a90be000440e10005c8e10006d0e10078
:1026800007d8e10002003100680040001008e800af
:102690004f05be004f04be000080fa000000060097
:1026a0000000fa00889fbe008a9fbe008c1f780041
:1026b000000678003c04be002c05be000400540057
:1026c00085805c0006015d0087815d00009ebe0084
:1026d000029ebe00100020000440e10005c8e10099
:1026e00006d0e10007d8e100010039000000eb004e
:1026f0001c0e10004f0678004f05be004f04be00b0
:102700000080fa00000006001200fa00889fbe0058
:102710008a9fbe008c9fbe000205be000004be0062
:10272000540798006507980076079800070f9800ef
:102730000000eb0040079800300798002007980041
:1027400010079800000f780000067800fd032000b5
:10275000ce0190003e00900003814100ae00900049
:10276000e08f510003003d0021000700b6ff070085
:10277000020037001e000700c9ff0700ce009000ce
:10278000e08f5000070035001400200005002000f5
:102790006033b80008047200898472000a0573006f
:1027a0008b8573000c06e8008d0f5600e8ff34009f
:1027b000e08f500002003d0027000700a2ff070045
:1027c0004eb89700e00f500002003a003e04be00f1
:1027d0002e05be000800be000a01be004f06be0066
:1027e0004f05be004f04be000080fa000000060046
:1027f000cf01de0002817100420798004f09de0020
:102800000000400000007100300798001e0090009a
:102810004f01de0081804000810071002107980097
:102820001e027800cf20de00000040000080700013
:10283000100798000800be000a01be004f18de0015
:1028400004024200000f72000804440089844c0016
:102850000a054d008b854d005e029000ee0290004f
:102860007e0390008e0b90000e00780000000600a2
:102870000000fa00881f780018002000881f7800e8
:10288000a1ff07008f87e9004f0478000080fa005d
:10289000000006000000fa00801feb009aff07000e
:1028a0008f87e9000080fa00000006000000fa00af
:1028b000889fbe008a9fbe008c1f7800e00f5000ea
:1028c000e08f5800e00f5900e08f59000f003d00e5
:1028d0006044b8006055b8000000540081805c007e
:1028e00002015d0083815d001c0020000820e100e2
:1028f00009a8e1000ab0e1000bb8e1000d003d00bd
:102900001a0007000006eb000a0037000006eb0083
:10291000e00f5200e08f5a00e00f5b00e08f5b0099
:1029200004003d006044b8006055b8000f00070087
:102930001c002000ceff0700e00f5600060032000a
:102940006022b8006033b8000000520081805a0055
:1029500002015b0083815b004f0678004f05be00db
:102960004f04be000080fa0000000600040254007c
:1029700085825c0006035d0087835d000000060021
:102980000000fa00889fbe008a9fbe008c1f78005e
:10299000e00f5000e08f5800e00f5900e08f590021
:1029a0000d003d006044b8006055b80000005400c0
:1029b00081805c0002015d0083815d001c002000bd
:1029c0000820e10009a8e1000ab0e1000bb8e1002d
:1029d0000d003d00080037000006eb00e00f52003c
:1029e000e08f5a00e00f5b00e08f5b0006003d00c7
:1029f0006044b8006055b8000402540085825c0051
:102a000006035d0087835d00a2ff0700e00f56000c
:102a1000060032006022b8006033b80000005200a7
:102a200081805a0002015b0083815b004f067800c1
:102a30004f05be004f04be000080fa0000000600f3
:102a40000000fa00889fbe008a9fbe008c1f78009d
:102a50000006eb00e00f5000e08f5800e00f590037
:102a6000e08f590007003d006044b8006055b80091
:102a70000000540081805c0002015d0083815d00e4
:102a80001c002000e00f5200e08f5a00e00f5b00b6
:102a9000e08f5b0007003d006044b8006055b8005f
:102aa0000402540085825c0006035d0087835d009c
:102ab0000c00a2000d000700e00f560006003200d7
:102ac0006022b8006033b8000000520081805a00d4
:102ad00002015b0083815b004f0678004f05be005a
:102ae0004f04be000080fa0000000600889fbe0070
:102af0008a9fbe008c9fbe000404b8000506b80083
:102b00008904460060854e000606b8000a054600a6
:102b1000e0854e000706b8008b054600040eb8009d
:102b2000890446000a854e00e0854d00050eb80078
:102b30000a0546008b854e00060eb8008b05460040
:102b40000416b8000a0546008b854e000516b8002d
:102b50008b054600041eb8008b0546000800be0029
:102b60000a01be004f06be004f05be004f04be0066
:042b7000000006005b
:020000040000fa
:102b740000950000000000000000000001f90000c2
:102b840000000000000000000887000004000000ae
:102b94000000000009af0000000000000100000078
:102ba4000a1b000000000000010000000cc300002c
:102bb40001000000000000000daf00000200000052
:102bc4000000000010ff00000000000000000000f2
:102bd40011ff0000000000000100000012ff0000cf
:102be400000000000100000018ff000000000000c9
:102bf4000100000019ff00000000000001000000b7
:102c040020ff0000000000000000000021ff000081
:102c1400000000000000000026df000001000000aa
:102c240000000000377300000000000000000000f6
:102c34003a25000004000000000000003b250000cd
:102c4400000000000000000029ff00000400000054
:102c54000000000017ff000000000000000000005a
:102c6400722b0000004300004f4e00004649000054
:102c7400472e000054580000540000004241000058
:102c840055440000202500006c640000002500006d
:102c940030340000782e00007478000074000000c6
:102ca400770000002e0000002e000000000000004d
:082cb4002e2e000000000000bc
:020000040000fa
:102cbc000200fa00000f780002402000019a230065
:102ccc00409923006eee020000000000024020003c
:102cdc00c1da230000da23006eee020000000000cf
:102cec0021e2a90021a2a9002182a9002162a90048
:102cfc0001118000f0cf2f000080600000118800cf
:102d0c0020e2a80020c2a90020a2a9002082a900cc
:102d1c000111800090ff2f000080600000118800de
:102d2c002002a9002062a90011118000f0f32f00ed
:102d3c0000806000101188002222a9001e0078007b
:102d4c00401188003142800080ff2f00008060001d
:102d5c006000b3003042880021428000f0ff280060
:102d6c0080806000000026000080700020428800f7
:102d7c002188a8002168a80021e2a8002342a8000d
:102d8c000080fa00000006000400fa00100798000a
:102d9c00101180004a00de0061406000004f780096
:102dac0021e2a9001e0090004011880021e2a80039
:102dbc009e40780061c060000080fb0061006000f4
:102dcc004a00dd0012118000f1bf2f00810061006c
:102ddc0000807000101188000080fa0000000600ce
:102dec000200fa0030ed8100e00f50000c003200c0
:102dfc00111180000020200000806000e00f5000c6
:102e0c0007003a008e00780000da2300d4ee0200ae
:102e1c00000000001e4078000080fb00201188009c
:102e2c000080fa00000006000200fa00000f780093
:102e3c009e00780040992300d4ee020000000000b0
:102e4c000080fa00000006000200fa00004f780033
:102e5c009e40780000da2300caef02000000000058
:102e6c00dfff07000080fa00000006000600fa00f1
:102e7c0010079800210798008041eb002e0190006c
:102e8c009e00900000da23002ef0020000000000eb
:102e9c00000f7800d2ff07001e0078000080fa00b7
:102eac00000006003600f800809fbe00829fbe0026
:102ebc00849fbe00869fbe000000fa00060037000b
:102ecc003011800000407800804078004099230049
:102edc00caef0200000000001011800061006000c9
:102eec00e00f5000f6ff3a00101180006200600005
:102efc00e00f5000010032002222a9000168a90055
:102f0c000080fa004f03be004f02be004f01be000e
:102f1c004f00be003600f900004006003600f800f5
:102f2c00809fbe00829fbe00849fbe00869fbe0015
:102f3c000000fa00aaff07000188a9000080fa002f
:102f4c004f03be004f02be004f01be004f00be003b
:082f5c003600f90000400600f8
:020000040000fa
:102f64000400fa00000f7800110798000000eb003d
:102f74008008880000e8a90043c8a80020e8a80049
:102f84001e00900060088800000328008008880064
:102f94001e007800102d8a000080fa000000060050
:102fa4003600f800809fbe00829fbe00849fbe0052
:102fb400869fbe003200f8000020200090018800a7
:102fc400000000000000fa00102d82000000010043
:102fd40000e8a9000080fa003200f9004f03be00a7
:102fe4004f02be004f01be004f00be003600f90084
:042ff4000040060093
:020000040000fa
:109000000200fa000000eb00000f780005003700b6
:10901000c0a722009e00400010c0b3008048780026
:109020001e0fe8001e007800e20f5000f8ff340029
:10903000c1ad24000040eb008048780021ad240041
:109040000040eb00804878000080eb008080eb005f
:1090500070568a0081568a000080eb008080eb0009
:10906000b0568a00c1568a0072da02000000000081
:10907000607523009a070700e04f50003b003a005c
:10908000f05682006175230001087800f0568200d6
:109090008000eb0051009800f05682008000eb0049
:1090a00061009800f25682006000b80070019800dc
:1090b00001099800f25682006000b800100998007b
:1090c00021099800f1568200c0c5b300c05898002d
:1090d00010002000000f780006003700f0568200d4
:1090e0001e004000fc00400000c2b3008048780031
:1090f0001e0fe8001e007800ea0f5000f7ff340052
:10910000f05682008000eb0071109800f05682004b
:109110000101200011189800f2568200b0b48100bd
:10912000c1b481002019980031199800f2568200cc
:10913000b0b48100c1b48100401998005119980061
:10914000f05682001100200041109800f056820075
:109150008000eb0061109800a16923000040eb0043
:109160008048780010002000010037000000eb006c
:109170000080fa00000006006000fa00881f7800f6
:10918000502f9800612f980062df980073df9800dd
:109190005e2890007010900040179800b0002000ea
:1091a000000f7800c0482300600f98006e289000e0
:1091b000d0109000710f98000000eb00400798005d
:1091c0000000eb00500798000000eb0070079800cb
:1091d0000000eb00000f98000000eb00300f98003b
:1091e0000040eb00205f98000040eb000067980013
:1091f0006e28900060109000e0bb8900e0bb810009
:10920000e00f500018003200e1bb8100d0002000c8
:1092100000017800110009008280d8008000fd0064
:1092200000679800e1bb8100d000200000017800b9
:10923000110009008280d800404798000e6090001d
:10924000e04f500003003a00e0bb8100ec0f5000fb
:1092500003003e004e4090000040e8004047980068
:109260004e409000205f98005e289000b01890005b
:10927000201890005e29900040199800511998001c
:109280006e28900010199000020078000080ea001b
:109290008180ea00101798004e109000e00f5000f7
:1092a0000b003a00800220000e00400012c0b30004
:1092b000800078005e2890008a170700e00f5000b9
:1092c00011003a00b0012000000f78000e003700b6
:1092d0004e1090006f006000e00f50000a00320056
:1092e000800220000e00400012c0b3008000780011
:1092f0005e2890007b170700e00f500002003a0044
:10930000b0012000000f78001e007800fb0f500015
:10931000db0532001e007800e00f5000d50532005a
:109320000000eb00100f98000000eb00200f9800e9
:10933000810220008e804000a00220000e0040002c
:1093400001017800800078005e2890001920070055
:10935000406798004e609000e24f5000c705320011
:109360004e609000e04f5000b2053a005e709000f1
:10937000ef4f50001c0032000000eb00000f98007f
:109380002e689000ee089000804878000040eb00c6
:10939000404798000e0037004e4090000080fb00d0
:1093a0000000e800ee089000808040004e409000f1
:1093b0000080fb00a002b0000000e8006e407800d2
:1093c000804878004e4090000040e80040479800f8
:1093d0004e409000e94f5000efff36001000200093
:1093e000100f9800780137002e6890008080fb00f5
:1093f0000004200000806000e00f5000d800320020
:109400002e6890007f406000506798007ed89000e2
:10941000e04f500011003a00e0bb8100e00f500027
:1094200004003200de6090002e58900080cf500083
:1094300006003a00e0bb8100e00f500007003a0050
:109440005e609000e14f5000040032004e1090002a
:109450000000e80040179800850537002e6890004e
:109460008080fb00f00b200000806000ed00b80061
:109470000000e90040079800ce00900031079800f6
:10948000ce2090004e00900000014000c048230014
:1094900000004100010878004e0090000000e90043
:1094a00040079800be2090004e0090000001400050
:1094b000c048230000004100010878004e009000e1
:1094c0000000e900400798009e2090004e009000a8
:1094d00000014000c048230000004100010878005e
:1094e0004e0090000000e900400798008e20900098
:1094f0004e00900000014000c048230000004100e1
:10950000010878004e0090000000e9004007980034
:10951000fe1890004e00900000014000c04823005b
:1095200000004100010878004e0090000000e900b2
:1095300040079800ee1890004e0090000001400097
:10954000c048230000004100010878004e00900050
:109550000000e90040079800de1890004e009000df
:1095600000014000c04823000000410001087800cd
:109570004e0090000000e90040079800ce189000cf
:109580004e00900000014000c04823000000410050
:10959000010878004e0090000000e90040079800a4
:1095a0003e70900020cf98004e70900030cf980011
:1095b000de2090004e00900000014000c0482300d3
:1095c00000004100010878004e0090000000e90012
:1095d000400798001e70900020cf98002e709000d9
:1095e00030cf9800de2090004e0090000001400037
:1095f000c048230000004100010878004e009000a0
:109600000000e900400798007e68900020cf980095
:109610000e70900030cf9800de2090004e00900039
:1096200000014000c048230000004100010878000c
:109630004e0090000000e900400798005e6890002e
:1096400020cf98006e68900030cf9800de20900008
:109650004e00900000014000c0482300000041007f
:10966000010878004e0090000000e90040079800d3
:109670003e68900020cf98004e68900030cf980050
:10968000de2090004e00900000014000c048230002
:1096900000004100010878004e0090000000e90041
:1096a000400798003e0090000000e8007007980016
:1096b00010c0b30040479800120037004e409000a1
:1096c0008080fb004e009000008040008000400041
:1096d000c04823000080400010007800e00f5000d8
:1096e00005003a004e4090008080fb004e00900044
:1096f00000804000700798004e4090000040e80055
:10970000404798004e409000ed4f5000ebff360070
:109710007ed89000e04f50000b003a00fe00900011
:10972000e0bb8100808f500007003200e0bb810069
:10973000e00f5000040032004e1090000000e800de
:1097400040179800ca0437007e0090000000e9002e
:109750005007980010002000000f9800910037007b
:109760000e089000e10f50008a003a00ce209000d1
:109770004e00900000014000c0482300000041005e
:10978000010878004e0090000000e90040079800b2
:10979000be2090004e00900000014000c048230011
:1097a00000004100010878004e0090000000e90030
:1097b000400798009e2090004e009000000140005d
:1097c000c048230000004100010878004e009000ce
:1097d0000000e900400798008e2090004e009000a5
:1097e00000014000c048230000004100010878004b
:1097f0004e0090000000e90040079800fe1890001d
:109800004e00900000014000c048230000004100cd
:10981000010878004e0090000000e9004007980021
:10982000ee1890004e00900000014000c048230058
:1098300000004100010878004e0090000000e9009f
:1098400040079800de1890004e0090000001400094
:10985000c048230000004100010878004e0090003d
:109860000000e90040079800ce1890004e009000dc
:1098700000014000c04823000000410001087800ba
:109880004e0090000000e900400798003e709000f4
:1098900020cf98004e70900030cf9800de209000ce
:1098a0004e00900000014000c0482300000041002d
:1098b000010878004e0090000000e9004007980081
:1098c0001e70900020cf98002e70900030cf98002e
:1098d000de2090004e00900000014000c0482300b0
:1098e00000004100010878004e0090000000e900ef
:1098f000400798007e68900020cf98000e7090007e
:1099000030cf9800de2090004e0090000001400013
:10991000c048230000004100010878004e0090007c
:109920000000e900400798005e68900020cf980092
:109930006e68900030cf9800de2090004e009000be
:1099400000014000c04823000000410001087800e9
:109950004e0090000000e900400798003e6890002b
:1099600020cf98004e68900030cf9800de20900005
:109970004e00900000014000c0482300000041005c
:10998000010878004e0090000000e90040079800b0
:10999000040037004e1090000000e80040179800c7
:1099a000330437004e009000e00f500004003400f4
:1099b0004e1090000000e800401798002c0437007b
:1099c00010002000200f98000000eb00000f98000e
:1099d0000000eb00000f78007ed890000080fb00b4
:1099e000e00f500003003200e10f50006b01320025
:1099f000d50337000040eb00404798000c003700cb
:109a00004e4090008080fb004e4090000080fb00a4
:109a10006e0990000000410010407800c104b000c1
:109a200000f778004e4090000040e8004047980062
:109a30004e409000ea4f5000f1ff36006e08900053
:109a4000680040009040780000c2b30080cf500012
:109a50005b0032000040eb00404798000b003700ed
:109a60004e4090000080fb00ee0890000080400017
:109a70009040780000c2b30080cf50000700320051
:109a80004e4090000040e800404798004e40900053
:109a9000e74f5000f2ff36000100370000000000e1
:109aa0004e4090000080fb00c104200080804000f8
:109ab000e0c2b30000f778004e4090000040e8009c
:109ac000404798004e4090008080fb006e08900058
:109ad0006800400010407800c104b00000f7780032
:109ae0004e4090000040e800404798006e0890000b
:109af000690040009040780000c2b30080cf500061
:109b00000b0032004e4090008080fb006e089000f9
:109b10006900400010407800c104b00000f77800f0
:109b20004e4090000040e800404798000900370090
:109b30004e4090000080fb00c10420008080400067
:109b40000040eb0000f778004e4090000040e80035
:109b5000404798006e0890006a00400090407800ee
:109b600000c2b30080cf50000b0032004e40900086
:109b70008080fb006e0890006a0040001040780072
:109b8000c104b00000f778004e4090000040e800ab
:109b9000404798001c0037004e4090000080fb00ba
:109ba000c1042000808040000040eb0000f77800f6
:109bb0004e4090000040e8004047980012003700f7
:109bc0000040eb00404798000a0037004e409000ec
:109bd0000080fb00c004b000ee40780000c2b3007b
:109be00080cf5000070032004e4090000040e80057
:109bf000404798004e409000e74f5000f3ff36007a
:109c000001003700000000004e4090000080fb0083
:109c1000c1042000808040000040eb0000f7780085
:109c2000e0bb8100e00f50007d0032002e08900064
:109c3000e00f5000410032000000eb0030079800b8
:109c4000380037006e28900040109000e00f500060
:109c5000220032003e00900000004000fe0890000c
:109c60000080400010007800204798003e009000df
:109c700080004000c04823000080400010007800b1
:109c8000304798003e00900080004000c04823000c
:109c90000080400090007800f00f2000808f50007e
:109ca0000b003e002e4090000080fb003a030200b3
:109cb00000000000000478003e4090000080fb009f
:109cc0003a03020000000000800f5400120032002e
:109cd000b0002000000f7800170037003e00900011
:109ce00000004000fe0890000080400090007800d6
:109cf0003e00900000014000c048230000004100e9
:109d000010007800808f500003003200b000200067
:109d1000000f7800080037003e0090000000e800c7
:109d200030079800be009000e0bb8100808f50009b
:109d3000c4ff390004033700030337001e089000f6
:109d4000e00f5000330032006e2890004010900069
:109d5000e00f50002f003200c00420000e00400031
:109d6000a00302000000000080007800e0bb81003a
:109d7000808f500003003200b0002000000f7800f8
:109d8000220037000000eb00300798001b0037006e
:109d90003e00900000004000fe089000008040005f
:109da00010007800204798003e009000c004b000ea
:109db0006e407800304798002e4090000080fb00f5
:109dc0003a03020000000000000478003e409000ca
:109dd0000080fb003a03020000000000800f5400e6
:109de00003003200b0002000000f780007003700a9
:109df0003e0090000000e80030079800be00900090
:109e0000e0bb8100808f5000e1ff390000000000be
:109e1000cd023700b0002000000f7800ca023700e2
:109e20002e089000e00f500036003200c0042000e1
:109e30000e004000a003020000000000fe009000a1
:109e4000810f500003003200b0002000000f7800a6
:109e5000bd0237000000eb003007980024003700f7
:109e60003e00900080004000c04823000080400079
:109e700010007800204798003e009000c004b00019
:109e80006e407800304798003e009000800040000f
:109e9000c04823000080400090007800f00f2000b0
:109ea000808f50000b003e002e4090000080fb0091
:109eb0003a03020000000000000478003e409000d9
:109ec0000080fb003a03020000000000800f5400f5
:109ed00004003200b0002000000f780000000000f5
:109ee000990237003e0090000000e800300798001b
:109ef000be0090007e009000808f5000d8ff35009b
:109f0000910237000040eb00404798001f003700e7
:109f10004e4090000080fb00ee0890000080400062
:109f200010417800224798004e4090000080fb00ce
:109f3000ee2890007c004000008040001040780037
:109f4000304798002e4090000080fb003a0302004a
:109f500000000000000478003e4090000080fb00fc
:109f60003a03020000000000800f54000400320099
:109f7000b0002000000f78000000000072023700df
:109f80004e4090000040e800404798004e4090004e
:109f9000ea4f5000deff36006b023700e0bb810065
:109fa000e00f5000600132000000eb00300f98001d
:109fb0002e089000e00f50001d0032005e0090005f
:109fc00060079800110037006e009000800040008c
:109fd000c04823000080400090007800e00220008c
:109fe000808f500006003a0010002000300f9800cb
:109ff0006e0090000000e90060079800060037003e
:10a000006e0090000000e900600798006e0090006c
:10a01000e00f5000ecff3c003e089000e00f5000c5
:10a020000d003a00de009000610798000a0037003a
:10a030006e089000680040009040780000c2b300b5
:10a0400080cf50000200320010002000300f980036
:10a050007000200060079800e0bb81000000e9006c
:10a06000400798000000eb00400f980011003700f7
:10a070004e00900000004000fe089000008040006c
:10a0800090007800e0022000808f500006003a0027
:10a0900010002000400f98004e0090000000e900e2
:10a0a00040079800060037004e0090000000e900cd
:10a0b000400798004e009000e00f5000ecff3c007d
:10a0c0004e089000e00f500003003a00e0bb810012
:10a0d0000000e900400798000000eb0030079800fe
:10a0e00001003700000000003e009000000040002a
:10a0f000fe0890000080400090007800a002200040
:10a10000808f500061003200be0090006e00900011
:10a11000808f500003003400b0002000000f780052
:10a120005d0037003e00900000004000fe089000f7
:10a130000080400090007800f0032000808f5000e5
:10a14000440032006e28900040109000e00f500054
:10a150002e0032003e00900000004000fe089000fb
:10a160000080400010007800204798002e089000e2
:10a17000e00f5000070032003e00900080004000d9
:10a18000c04823000080400010007800304798004d
:10a19000050037003e009000ee089000008040006f
:10a1a00010417800324798002e089000e00f5000d0
:10a1b000080032003e00900080004000c0482300ac
:10a1c0000080400090007800f00f2000808f500049
:10a1d0000b003e002e4090000080fb003a0302007e
:10a1e00000000000000478003e4090000080fb006a
:10a1f0003a03020000000000800f540015003200f6
:10a20000b0002000000f7800230037003e009000cf
:10a2100000004000fe0890000080400090007800a0
:10a220003e00900000014000c048230000004100b3
:10a2300010007800808f500003003a001e08900044
:10a24000e00f500003003200b0002000000f780043
:10a25000110037003e0090000000e8003007980031
:10a26000be0090004e009000808f50009dff340093
:10a27000be0090006e009000808f500005003c00f2
:10a28000b0002000000f780003003700000000003d
:10a2900001003700000000004e089000e00f500061
:10a2a00006003a003e089000e10f50009f013a007e
:10a2b000b0002000000f7800a30137003e08900096
:10a2c000e00f500003003a00b0002000000f7800bb
:10a2d0009d0137002e089000e00f5000040032006e
:10a2e0006e0090000080e8006007980002003700d0
:10a2f00080002000600798004e0090000080e80079
:10a300003007980001003700000000003e00900078
:10a3100000004000fe08900000804000900078009f
:10a32000a0022000808f500001003a007d0037001d
:10a330002e089000e00f500004003200ee00900064
:10a340005e009000808f500006003c001e089000c8
:10a35000e00f5000060032006e009000eb0f50003e
:10a3600003003a00b0002000000f78006d003700b5
:10a370003e00900000004000fe0890000080400079
:10a3800090007800f0032000808f500044003200dd
:10a390006e28900040109000e00f50002e00320018
:10a3a0003e00900000004000fe0890000080400049
:10a3b00010007800204798002e089000e00f500011
:10a3c000070032006e00900080004000c04823006b
:10a3d00000804000100078003047980005003700ea
:10a3e0006e009000ee0890000080400090407800e1
:10a3f000314798002e089000e00f5000080032000e
:10a400006e00900080004000c048230000804000a3
:10a4100090007800f00f2000808f50000b003e006d
:10a420002e4090000080fb003a0302000000000074
:10a43000000478003e4090000080fb003a030200d8
:10a4400000000000800f540015003200b000200012
:10a45000000f7800330037003e00900000004000fd
:10a46000fe08900000804000900078006e00900090
:10a4700000014000c04823000000410010007800a7
:10a48000808f500003003a001e089000e00f50003b
:10a4900003003200b0002000000f780021003700d8
:10a4a0006e0090000000e800600798003e009000f9
:10a4b0000000e80030079800be009000e0bb81007b
:10a4c000808f500090ff3a002e089000e00f50005f
:10a4d00004003200ee0090005e009000808f50007b
:10a4e0000d0034001e089000e00f50000c003200f8
:10a4f0006e009000ea0f500009003c006e009000d2
:10a50000ee089000008040009040780000c2b30048
:10a5100080cf500002003200b0002000000f780011
:10a5200000000000080137002e089000e00f5000e6
:10a530001f0032005e019000320798000000eb001f
:10a54000300f9800110037003e009000800040005e
:10a55000c04823000080400090007800e002200006
:10a56000808f500006003a0010002000300f980045
:10a570003e0090000000e900300798000600370018
:10a580003e0090000000e900300798003e00900077
:10a59000e00f5000ecff3c003e089000e00f500040
:10a5a00005003a005e009000300798000200370076
:10a5b00070002000300798006e289000c05890006e
:10a5c000a0c2b30080cf50005c0032000040eb001e
:10a5d0004047980001003700000000002e0890005e
:10a5e000e00f5000110032004e4090000080fb0050
:10a5f00080004000c04823000080400090007800a8
:10a60000f00f2000808f500005003e004e4090006b
:10a610008080fb003e009000808f500003003400db
:10a62000b0002000000f7800440037002e08900092
:10a63000e00f5000080032004e4090000080fb0008
:10a6400080004000c04823000080400010007800d7
:10a6500020479800060037004e4090000080fb0025
:10a66000ee0890000080400090407800214798005c
:10a670004e4090000080fb00ee2890007c004000df
:10a68000008040001040780030479800be409000a5
:10a69000a0c2b30080cf500023003200be40900023
:10a6a000f0c3b30080cf50000e0032002e40900067
:10a6b0000080fb003a030200000000000004780064
:10a6c0003e4090000080fb003a03020000000000c2
:10a6d000800f540003003200b0002000000f78000b
:10a6e000160037004e4090000040e80040479800b8
:10a6f0004e409000e84f5000b7ff3a002e089000ff
:10a70000e00f50000a0032004e4090008080fb00b5
:10a710003e009000808f500007003c00b0002000f9
:10a72000000f78000500370000000000030037002c
:10a730000000000001003700000000006e289000bb
:10a74000c0609000a0c2b30080cf500079003200fa
:10a750001e007800e00f500078003a002e089000ac
:10a76000e00f5000150032006e289000c06090008d
:10a7700000c2b30080cf500006003a003e089000af
:10a78000e10f50006f003a00b0002000000f780089
:10a790006d0037003e089000e00f500003003a00c3
:10a7a000b0002000000f7800670037003e009000e6
:10a7b0000080e80030079800020037008000200089
:10a7c0003007980080c0b300404798000100370070
:10a7d000000000002e089000e00f50000f00320033
:10a7e0003e00900080004000c048230000804000f0
:10a7f00090007800f00f2000808f500004003e0091
:10a80000be0090005e009000808f50000300340076
:10a81000b0002000000f7800430037004e40900049
:10a820000080fb00ee2890007c004000008040008b
:10a8300010407800304798002e089000e00f50003c
:10a840000a0032003e00900080004000c048230013
:10a850000080400010007800204798003e009000e3
:10a860000000e80030079800080037003e00900024
:10a87000ee089000008040001041780022479800c8
:10a880003e0090000000e80030079800be409000b5
:10a89000a0c2b30080cf500001003a002200370070
:10a8a000be409000f0c3b30080cf50000e003200d5
:10a8b0002e4090000080fb003a03020000000000e0
:10a8c000000478003e4090000080fb003a03020044
:10a8d00000000000800f540003003200b000200090
:10a8e000000f7800100037004e4090000040e80054
:10a8f000404798004e409000eb4f5000b4ff3a00a4
:10a900002e089000e00f500006003200be009000bc
:10a910005e009000808f500002003c00b0002000dc
:10a92000000f780000000000070037000000000062
:10a9300005003700000000000300370000000000a1
:10a9400001003700000000001e007800e00f5000fa
:10a9500040003a002e089000e00f50000300320043
:10a960004e1090000000e800401798008002200080
:10a970000e004000800078005e289000d919070082
:10a98000406798002e089000e00f5000030032004e
:10a990004e1090000000e900401798005e289000db
:10a9a0009018900031179800be109000f00320001e
:10a9b00000806000301798007ed890000080fb0077
:10a9c000e00f500003003200e10f5000070032009a
:10a9d000230037003e109000e80f50001f003a009f
:10a9e000b0002000000f78001d003700be1090005e
:10a9f0001e10900000806000e00f50000200320046
:10aa0000b0002000000f78002e089000e00f5000ea
:10aa100004003200fe0090005e2890006110980053
:10aa20000f0037005e2890008000eb006110980056
:10aa30000b0037000000eb00000f98006ed890006c
:10aa4000e04f500006003a000000eb00000f7800d5
:10aa50000300370000000000010037000000000084
:10aa60004e1090000000e8004017980029fa3700c7
:10aa700028fa370000000000010037000000000045
:10aa80001e0078004f0478000080fa0000000600e5
:10aa90001000fa005007980061079800624f980074
:10aaa0000000eb00000f78005e009000900078003e
:10aab000110798001e00900030609000e04f500099
:10aac00003003a0070002000000f7800910037006a
:10aad0005e009000b0189000201890005e01900079
:10aae00040199800511998006e00900010007800ed
:10aaf000e00f500009003a0012c0b300ee009000d1
:10ab00005e00900077110700e00f500010003a003f
:10ab1000b0012000000f78000d0037006e0090009b
:10ab2000100078006f006000e00f50000800320055
:10ab300012c0b300ee0090005e00900069110700a3
:10ab4000e00f500002003a00b0012000000f780032
:10ab5000ee0090005e0090006219070040479800e8
:10ab60004e409000e04f500003003200b000200043
:10ab7000000f7800670037005e0190006000b800a9
:10ab800070019800010998005e009000a0009000fc
:10ab9000100090005e019000300198004101980083
:10aba0005e0090008000eb00510098005e00900075
:10abb0008000eb00610098004e409000e14f500093
:10abc00003003a00b0002000000f78003100370089
:10abd0005e009000c0009000300090000001be00b8
:10abe0001e009000c31f070030079800410798001f
:10abf000a0ad240010407800e04f50000500320066
:10ac0000ea210700e04f50000200320090002000cf
:10ac1000410037005e019000a2568a00b2568200c1
:10ac2000c35682003e009000ce009000800f51007d
:10ac3000818f590017003200c1ad24000040eb00a5
:10ac4000804878001e009000104178008280fb0050
:10ac5000104090000080fb004800dd000100700003
:10ac6000000178003e009000ce009000a8db0200ba
:10ac700000000000e04f500002003a008000200079
:10ac8000000f78003e009000ce009000b0568a0081
:10ac9000c1568a005e00900030099000b1ff2f007d
:10aca0008100610031089800ee48900070c7b30041
:10acb00080cf500004003200ee48900010c6b30070
:10acc00080cf50000a003a005e009000b00890006b
:10acd0000100a000310898005e009000300990004b
:10ace000d1ff2f0081006100310898000900370072
:10acf0005e00900030099000e1ff2f0081006100ac
:10ad0000310898005e009000b00890000110a0008b
:10ad1000310898001e0078000080fa00000006004c
:10ad20001a00fa00200f9800320f9800430f980085
:10ad30000040eb00004f98002e0890009000780033
:10ad4000510798005e009000206090000080fb009a
:10ad5000e10f50000a003200e30f500010003a00eb
:10ad600080ff2f00f1ff2000200798003107980096
:10ad7000f0ff2f00f1ff2000008fbe001000370011
:10ad800080ff200001002000200798003107980074
:10ad9000f0ff2f0001002000008fbe0008003700e8
:10ada00080ff2f0001002000200798003107980045
:10adb000f0ff2f0001002000008fbe000000000007
:10adc0002e08900030019000c001900062079800aa
:10add000730798006e019000fe0190005e009000e5
:10ade000d2290700000f9800110f98000e0890005c
:10adf0009e089000be0f5000ae8f580003003a002e
:10ae000080c0b300004f98001f0037005e01900023
:10ae1000c25190000382fb00d25190008381fb005d
:10ae2000c819dd008481710003007800e2519000b0
:10ae30008381fb00725190000281fb004811dd000c
:10ae400003017100820078000e0990009e099000b5
:10ae5000820f5000838f580002003e00a0c0b30054
:10ae6000004f98000e0990009e0990002e0090005f
:10ae7000be009000800f5100818f59000200390000
:10ae8000c0c3b300004f98002e0890000e09900038
:10ae90009e09900032009800430098003e08900000
:10aea000ce08900061005000e0805800300f9800fc
:10aeb000410f98003e089000ce089000e00f50002f
:10aec000e08f5800030032000e489000e04f500021
:10aed000bbff32000e4890000080fa000000060020
:10aee0000600fa00200798000040eb00004f7800b1
:10aef000ae0090000040eb00b06098002e00900083
:10af0000425a2400f10f2000810161009040780036
:10af1000e0c0600083c07000014878004811de0086
:10af200090409000e0c0600082c070001140980026
:10af30008ae1020000000000100798001e00900047
:10af400010407800e04f50000600320060c0b300af
:10af5000004f7800a169230060c0b30080487800ea
:10af60003b0037001e009000900078000010200089
:10af700000806000e00f5000260032001e009000ac
:10af8000100090006101b8002e009000f10f200029
:10af90000102610080589000e0c0600084c0700031
:10afa000015898004812de0090589000e0c0600000
:10afb00084c0700011589800f10f200001826100d8
:10afc000a0589000e0c0600084c070002158980034
:10afd0004819de00b0589000e0c0600082c07000e8
:10afe000315898001e009000900090000020200032
:10aff000808f50000700360010c2b300004f780069
:10b00000a169230010c2b300804878001e40780078
:10b01000100037002e00900010000700004f78004d
:10b020001e407800e04f500009003a002e009000ca
:10b0300046010700004f78001e407800e04f5000a6
:10b0400003003a00ae00900010c0b300b06098005a
:10b050001e4078000080fa00000006000c00fa0094
:10b06000500798000040eb00004f78005e00900011
:10b07000104178008280fb00104090000080fb00af
:10b080004800dd0001007000000178006000b80099
:10b09000a8db020000000000e14f50000600320073
:10b0a00080c0b300004f7800a169230080c0b300c6
:10b0b00080487800220137005e009000104178003f
:10b0c0008280fb00104090000080fb004800dd0003
:10b0d00001007000200798002e009000e0f8930017
:10b0e00050c5b30080cf5000a1003a002e00900060
:10b0f000f0f89300a0cab30080cf50009c003a0043
:10b100005e009000104178008280fb0010409000ab
:10b110000080fb004800dd0001007000610320009a
:10b120002e1e070061c4b300814f500042003a0058
:10b130005e009000104178008280fb00104090007b
:10b140000080fb004800dd0001007000710320005a
:10b15000221e070011c4b300814f500036003a0090
:10b160005e009000104178008280fb00104090004b
:10b170000080fb004800dd0001007000810320001a
:10b18000161e070041c5b300814f50002a003a0047
:10b190005e009000104178008280fb00104090001b
:10b1a0000080fb004800dd000100700091032000da
:10b1b0000a1e070011c3b300814f50001e003a0061
:10b1c0005e009000104178008280fb0010409000eb
:10b1d0000080fb004800dd000100700061022000db
:10b1e000fe1d070091c2b300814f500012003a00cb
:10b1f0005e009000a0409000e0c0600021409800f8
:10b20000b0409000e0c0600031409800c040900025
:10b21000e0c0600041409800d0409000e0c0600075
:10b2200051409800de00900020c0b300a06098005c
:10b230000040eb00c30037005e0090001041780032
:10b240008280fb00104090000080fb004800dd0081
:10b250000100700021052000e01d070061c4b3005b
:10b26000814f500042003a005e009000104178008b
:10b270008280fb00104090000080fb004800dd0051
:10b280000100700031052000d41d070011c4b30077
:10b29000814f500036003a005e0090001041780067
:10b2a0008280fb00104090000080fb004800dd0021
:10b2b0000100700041052000c81d070041c5b30012
:10b2c000814f50002a003a005e0090001041780043
:10b2d0008280fb00104090000080fb004800dd00f1
:10b2e0000100700051052000bc1d070031c3b300f0
:10b2f000814f50001e003a005e009000104178001f
:10b300008280fb00104090000080fb004800dd00c0
:10b310000100700021042000b01d070091c2b3009d
:10b32000814f500012003a005e009000a040900053
:10b33000e0c0600021409800b0409000e0c0600094
:10b3400031409800c0409000e0c06000414098004b
:10b35000d0409000e0c0600051409800de009000b6
:10b3600030c0b300a06098000040eb0075003700cb
:10b370005e009000104178008280fb001040900039
:10b380000080fb004800dd000100700030079800dd
:10b390003e009000e0f8930050c5b30080cf50000d
:10b3a00005003a003e009000f0f89300a0cab300f8
:10b3b00080cf500006003200a169230040c0b300d6
:10b3c0008048780040c0b300004f78005c00370030
:10b3d0003e009000e01bb000100798000040eb001a
:10b3e000104798004e0037001e00900080489000e3
:10b3f0000182fb00904890008180fb00c808dd00be
:10b400008480700001017800a04890008180fb00da
:10b41000304890000080fb004800dd000100700013
:10b42000800178005e009000f10f200001026100b1
:10b43000a0409000e0c0600084c0700021409800ef
:10b440004812de00b0409000e0c0600084c0700090
:10b4500031409800f10f200001826100c04090004f
:10b46000e0c0600084c07000414098004819de00d0
:10b47000d0409000e0c0600082c070005140980051
:10b480001e009000c0409000014f98000e489000b0
:10b490000080fb00ee0f50001b003e00110020005a
:10b4a0000008dd000105240081006000e08f5000ed
:10b4b0000b003a000180210081006000e08f500005
:10b4c0000c003a0062006000e00f50000e003200f5
:10b4d000de00900010c0b300a06098000a003700a2
:10b4e000de00900020c0b300a06098001e407800ed
:10b4f00014003700de00900030c0b300a060980058
:10b500001e4078000f0037001e00900070004000c1
:10b51000100798001e4090000040e8001047980077
:10b520001e409000e34f5000afff3600a16923009a
:10b5300050c0b3008048780050c0b300004f78007e
:10b540001e4078000080fa00000006001a00fa0091
:10b55000881f7800400f98000040eb00404798009b
:10b560000000eb00300798000000eb004007980057
:10b570004e089000104178008280fb00104090003f
:10b580000080fb004800dd00010070000002780030
:10b590004e099000a24190008382fb00b2419000ce
:10b5a0008381fb00c819dd008581710003007800ec
:10b5b000c24190008381fb00524190000281fb0058
:10b5c0004811dd0003017100820078000401780059
:10b5d000a8db020000000000e14f50000300320031
:10b5e00080c0b30040479800fc0237004e0890002e
:10b5f000904178008380fb00104090000080fb00a9
:10b600004800dd0001007000500798005e009000c7
:10b61000e0f8930050c5b30080cf500005003a0019
:10b620005e009000f0f89300a0cab30080cf5000f5
:10b630000300320030c0b3004047980025023700b5
:10b640004e089000104478008880fb001040900065
:10b650000080fb004800dd0001007000e1002000d8
:10b66000e61c0700600798004e0890001041780023
:10b670008280fb00104090000080fb004800dd004d
:10b6800001007000d1002000d41c0700ce089000fb
:10b69000906098004e099000a24190000382fb0048
:10b6a000b24190008381fb00c819dd0084817100e4
:10b6b00003007800c24190008381fb00524190005a
:10b6c0000281fb004811dd00030171008200780057
:10b6d0006e019000030020000001410081814900bb
:10b6e0004e089000f10f200001026100e040900040
:10b6f000e0c0600084c07000614098004812de0025
:10b70000f0409000e0c0600084c07000714098007c
:10b71000f10f20000182610080489000e0c06000cd
:10b7200084c07000014898004819de0090489000dd
:10b73000e0c0600082c07000114898004e08900080
:10b74000904178008380fb00104090000080fb0057
:10b750004800dd0001007000010120009f1c07006f
:10b76000ce089000806098004e0890001044780049
:10b770008880fb00104090000080fb004800dd0046
:10b7800001007000610120009c1c07006101b800ed
:10b790004e089000f10f200001026100c058900097
:10b7a000e0c0600084c07000415898004812de007c
:10b7b000d0589000e0c0600084c0700051589800dc
:10b7c000f10f200001826100e0589000e0c06000ad
:10b7d00084c07000615898004819de00f05890004d
:10b7e000e0c0600082c07000715898004e0990005f
:10b7f000c25990000382fb00d25990008381fb0064
:10b80000c819dd008481710003007800e2599000be
:10b810008381fb00725990000281fb004811dd001a
:10b820000301710082007800e00f5000e08f5800a3
:10b8300021003a004e089000104178008280fb0001
:10b84000104090000080fb004800dd000100700007
:10b8500041022000841c07000001be004e08900039
:10b86000f10f200001026100c0589000e0c06000ac
:10b8700084c07000415898004812de00d0589000f3
:10b88000e0c0600084c0700051589800f10f2000a3
:10b8900001826100e0589000e0c0600084c0700048
:10b8a000615898004819de00f0589000e0c0600030
:10b8b00082c07000715898004e089000e0409000df
:10b8c0000181fb00f04090008180fb00c808dd0092
:10b8d0008280700001027800804890008180fb0027
:10b8e000104890000080fb004800dd00010070005f
:10b8f000800278004e089000006090000081fb00fc
:10b90000030020004e0b9000c65b90000784fb00f4
:10b91000d65b90008783fb00c83bdd008883730003
:10b9200007007800e65b90008783fb00765b900061
:10b930000683fb004833dd000703730086007800b0
:10b94000801bb800820cb80088037800070343000e
:10b950000010b80001034300860078000401400095
:10b96000858148004e089000f10f2000010261001f
:10b97000a0489000e0c0600084c07000214898009a
:10b980004812de00b0489000e0c0600084c0700043
:10b9900031489800f10f200001826100c0489000fa
:10b9a000e0c0600084c07000414898004819de0083
:10b9b000d0489000e0c0600082c0700051489800fc
:10b9c0004e089000104178008280fb0010409000eb
:10b9d0000080fb004800dd00010070001101200024
:10b9e000061c0700000178004e089000f10f2000af
:10b9f00081016100a0509000e0c0600083c0700031
:10ba0000215098004811de00b0509000e0c0600066
:10ba100082c07000315098004e089000904178002c
:10ba20008380fb00104090000080fb004800dd0098
:10ba30000100700031012000f01b07000100200010
:10ba4000008fbe001e00be00e00f5000e08f5800c7
:10ba50000a003a004e089000104478008880fb00ed
:10ba6000104090000080fb004800dd0001007000e5
:10ba700001022000fc1b0700008fbe004e08900052
:10ba8000104178008280fb00104090000080fb0095
:10ba90004800dd0001007000b1002000d71b070046
:10baa000700798007e009000e00f50000500320003
:10bab0007e0090006100600000407800e04f500080
:10bac0000300320010c2b300404798000101370064
:10bad000ce089000215090000081fb003150900072
:10bae0000080fb004800dd0002007000c500dd00a2
:10baf0007e009000008040008000e9007e00900001
:10bb000080017800110009008380d8000100200026
:10bb1000000f9800110f98006e0090006103b800ac
:10bb20004e089000006090000081fb0003002000a0
:10bb30004e0a9000c45a90000584fb00d45a90002d
:10bb40008582fb00c82add0088827200050078002b
:10bb5000e45a90008582fb00745a90000482fb0036
:10bb60004822dd000502720084007800801ab800c7
:10bb7000820cb80088027800050242000010b8006c
:10bb800001024200840078000601400087814800dd
:10bb90000e0890009e08900002004000838048003c
:10bba0003e011000ae8118000200be00200f980078
:10bbb000310f98004e089000106090000080fb004c
:10bbc000010020000001be002e089000be08900079
:10bbd00056030200000000000001be004e08900065
:10bbe000f10f200001026100c0509000e0c0600031
:10bbf00084c07000415098004812de00d050900080
:10bc0000e0c0600084c0700051509800f10f200027
:10bc100001826100e0509000e0c0600084c07000cc
:10bc2000615098004819de00f0509000e0c06000bc
:10bc300082c07000715098004e099000c25190006f
:10bc40000382fb00d25190008381fb00c819dd0004
:10bc50008481710003007800e25190008381fb0031
:10bc6000725190000281fb004811dd000301710058
:10bc70008200780042ff200003002000820f500065
:10bc8000838f580004003e00ce08900010c0b3001f
:10bc9000a06098001b0037004e099000c251900030
:10bca0000382fb00d25190008381fb00c819dd00a4
:10bcb0008481710003007800e25190008381fb00d1
:10bcc000725190000281fb004811dd0003017100f8
:10bcd0008200780042ff2f0003002000820f5000f6
:10bce000838f580004003e00ce08900020c0b300af
:10bcf000a060980003003700ce08900030c0b30069
:10bd0000a06098004e08900020609000e34f500023
:10bd100036003a004e089000904178008380fb0086
:10bd2000104090000080fb004800dd000100700022
:10bd3000c10220004c1b0700b0b48900c1b48900c7
:10bd40004e099000a24990000382fb00b249900086
:10bd50008381fb00c819dd00848171000300780035
:10bd6000c24990008381fb00524990000281fb0090
:10bd70004811dd0003017100820078000e09900077
:10bd80009e09900000014100818149004e08900009
:10bd9000f10f200001026100e0489000e0c0600067
:10bda00084c07000614898004812de00f04890009e
:10bdb000e0c0600084c0700071489800f10f20005e
:10bdc0000182610080509000e0c0600084c070007b
:10bdd000015098004819de0090509000e0c06000cb
:10bde00082c0700011509800340037006000b80025
:10bdf000b0b48900c1b489004e099000a2499000f6
:10be00000382fb00b24990008381fb00c819dd006a
